S01900004D6F746F725F436F6E74726F6C5F4C61622E737265634C
S11300000C944C000C946B000C946B000C946B00DF
S11300100C942A0D0C942A0D0C942A0D0C942A0D80
S11300200C946B000C946B000C946B000C94E00B20
S11300300C946B000C946B000C946B000C946B0090
S11300400C946B000C946B000C946B000C946B0080
S11300500C9473090C94860B0C946B000C946B0039
S11300600C946B000C946B000C946B000C946B0060
S11300700C949E090C94AF0B0C946B000C946B00C5
S11300800C946B000C946B000C946B006364696EAD
S11300906F70737578585B0011241FBECFEFD0E4E6
S11300A0DEBFCDBF11E0A0E0B1E0E0EDFDE200E095
S11300B00BBF02C007900D92A63CB107D9F722E00E
S11300C0A6ECB1E001C01D92AB35B207E1F70E9486
S11300D0D3010C94E6160C94000082E00E9477078A
S11300E0811103C00E944D0BF8CF0895462FBC0127
S11300F082E00E94830B0C946D0040E855E260E0BE
S113010070E082E00E94920A40E260E172E082E0E4
S11301100E94700968E170E083E391E00E94760038
S113012064E170E08CE491E00C9476000F931F93EB
S1130130CF93DF93CDB7DEB7A3970FB6F894DEBFA6
S11301400FBECDBF40913001509131019E012D5D14
S11301503F4F8E010F5F1F4F452B49F13F932F9364
S113016025E631E03F932F939F938F930E94BF1016
S113017060E080E00E94DA048BA11F928F9381E6F5
S113018091E09F938F930E947E1020910F02822F03
S1130190992787FD90959F932F938BA11F928F93FF
S11301A088E691E09F938F931F930F931CC0AE0139
S11301B04F5D5F4F5F934F933F932F9325E731E05C
S11301C03F932F939F938F930E94BF108AA18F9385
S11301D089A18F938BA11F928F9388E691E09F93BF
S11301E08F931F930F930E949010BC01C8010E942B
S11301F076000FB6F894DEBF0FBECDBF1BA18FE90A
S1130200810F8A3110F480E201C080E0181B1BA327
S11302101A3469F148F41134D1F1163461F560E10E
S113022070E08BE791E010C0123551F01335A1F066
S11302301B3409F580910F02865F80930F0217C06B
S113024060E170E08CE891E00E9476001093320146
S113025089A180930F021BC060E170E08DE991E0F9
S11302600E9476001093320110920F0210C0809108
S11302700F028A50EECF67E170E087EA91E00E94B6
S1130280760064E170E08CE491E00E947600A3962D
S11302900FB6F894DEBF0FBECDBFDF91CF911F9193
S11302A00F910895EF92FF920F931F93CF93DF93D3
S11302B0CDB7DEB7A0970FB6F894DEBF0FBECDBFA3
S11302C082E00E9467079091300220910C023091E5
S11302D00D028917D9F0A1E0B0E0AC0FBD1FA20F49
S11302E0B31FE92FF0E0E05FFD4F80818C932F5F17
S11302F03F4F30930D0220930C029F3119F410925A
S11303003002DECF9F5F90933002DACF21153105A2
S1130310E9F18091300190913101892B19F4213058
S1130320310581F18E010F5F1F4FF801E20FF31FBA
S1130330108261E080E00E94DA048FEB91E00E9479
S11303405A0460910C0270910D02882777FD809504
S1130350982F0E94B70489E20E94C4037801809117
S11303600C0290910D029701201B310B28173907BD
S113037034F4F70181917F010E94C403F0CFC801D6
S11303800E94960010920D0210920C02A0960FB6D5
S1130390F894DEBF0FBECDBFDF91CF911F910F91B7
S11303A0FF90EF9008952CE14DE162E083E00E941C
S11303B01D0E84E690E00E94280C0E9434060E94E0
S11303C07D000E94430478940E941C0360910E02F5
S11303D080910F02772767FD7095992787FD909587
S11303E00E946407599A519A44983C9A0E944D0B72
S11303F00E945201E9CF80917C0090E025E0959520
S113040087952A95E1F78170089580917A0090E0AC
S113041036E0959587953A95E1F781700895EF92C6
S1130420FF920F931F93CF93DF938091C60188238C
S113043009F454C0E090C701F090C8010E94FB0188
S1130440C0910001D0910101970140E050E0882360
S113045009F17E01F694E79400E010E0CA01B901C5
S11304602FEF30E040E050E00E94750EE60EF71EDC
S1130470081F191F9E0140E050E0C801B7010E9407
S1130480990EC901DA018F3F9105A105B10521F14A
S113049018F131C07E01F694E79400E010E0CA013F
S11304A0B9012FEF33E040E050E00E94750EE60EF4
S11304B0F71E081F191F9E0140E050E0C801B70154
S11304C00E94990EC901DA01803020E0920721E0F0
S11304D0A20720E0B20790F49C0112C00E94FB0125
S11304E0882321F02091790030E00AC0209178001F
S11304F03091790005C02FEF30E002C02FEF3FEFBD
S1130500C901CDB7DEB7E6E00C94EE0E803200F1FF
S113051091E09093C601803819F40E94AE0C13C088
S1130520813819F40E94B50C0EC0823819F40E9467
S1130530BC0C09C0833819F40E94C30C04C084386D
S1130540F9F40E94CA0C9093C8018093C7010895DE
S11305501092C60197E890937A0090917C00292F1D
S11305602064662311F0906C02C0922F9F77907ED6
S1130570982B90937C0080917A00806480937A0019
S1130580089560E00E9486020E9405028823E1F734
S11305900E940F020895A0E0B0E0E1EDF2E00C94B7
S11305A0D00E6B01803218F00E94C1023AC060E0A4
S11305B00E9486020E9405028823E1F7E601EE24E8
S11305C0FF24870180917A00806480937A000E94DE
S11305D005028823E1F70E940F02A0E0B0E0E80ED4
S11305E0F91E0A1F1B1F219769F7C6019695879567
S11305F020E4C216D10440F48E0D9F1D6C2D70E0D2
S11306000E94850ECB010DC0BC0180E090E06E0D10
S11306107F1D801F911F960140E050E00E94990EBB
S1130620C901CDB7DEB7E8E00C94EC0E80E864E1D4
S113063070E00E94CB0208950E941603089580E0A2
S113064090E0089581E090E06F9364E06A95F1F79B
S11306506F910197C9F708950F931F93CF93DF9379
S113066017B13D982898299AC0E0D0E00E9422034F
S11306702A9A0E94220306B12A980E9422032A9AE7
S11306800E9422032A98249605FF10C09E0140E090
S113069050E08091CD019091CE01A091CF01B09115
S11306A0D001281739074A075B0700F39E0140E091
S11306B050E08091CD019091CE01A091CF01B091F5
S11306C0D001281739074A075B0728F082E390E036
S11306D0A0E0B0E004C080E395E7A0E0B0E0809340
S11306E0CD019093CE01A093CF01B093D00117B95F
S11306F0DF91CF911F910F91089528B190E08F70F1
S11307009070880F991F880F991F237C282B28B974
S11307102A9A0E9422032A980E9422030895A2E0A2
S1130720B0E0E5E9F3E00C94D30E182F4A83698313
S11307300E940D040E942C03F7B008B12998698126
S11307404A81662311F0289A01C0289887B18C63E6
S113075087B9413029F0812F82958F700E947D03E3
S1130760812F8F700E947D03F7B808B92296E5E0C7
S11307700C94EF0E60E042E00E948F03089561E064
S113078042E00E948F0308950E94BF03089560E031
S113079041E00E948F0308953D98459A80E395E7D0
S11307A0A0E0B0E08093CD019093CE01A093CF015F
S11307B0B093D001209A219A229A8EE190E00E946F
S11307C0280C83E00E94C70386E090E00E94280C76
S11307D083E00E94C70382E090E00E94280C83E03B
S11307E00E94C70382E090E00E94280C82E00E94ED
S11307F0C70382E090E00E94280C88E20E94BA03BA
S113080088E00E94BA0381E00E94BA0386E00E9455
S1130810BA038CE00E94BA0308958091D101882321
S113082029F481E08093D1010E94CC03089581E0F2
S11308300E94BA038091C9019091CA01009711F1F5
S1130840A0E0B0E208C0E091C901F091CA01E20F52
S1130850F31FB083AF5F2A2F30E08091020190E054
S113086001976091030170E0869FA001879F500D5E
S1130870969F500D1124241735072CF31092CC01A8
S11308801092CB0108950E9417040895EF92FF92ED
S1130890CF93DF93E82EE7017E01F92EE70102C032
S11308A00E94BF0389918823D9F7DF91CF91FF90EC
S11308B0EF9008950E9446040895AAE0B0E0E3E6AC
S11308C0F4E00C94CE0E9B01AC011AE06AE0C62E53
S11308D0D12CE12CF12C5E010894A11CB11C022F37
S11308E0CA01B901A70196010E94990E1150F501A0
S11308F0E10FF11D005D922F990F892F880F880F4A
S1130900890F081B0083211531054105510539F76D
S113091008C0F601E10FF11D80810E94BF031F5F33
S113092004C06E010894C11CD11C1A3090F32A969D
S1130930EAE00C94EA0EEF92FF920F931F937B016F
S11309408C0197FF0BC010950095F094E094E11C86
S1130950F11C011D111D8DE20E94BF03C801B701E6
S11309600E945D041F910F91FF90EF9008950E94E3
S11309709B040895A5E0B0E0E0ECF4E00C94D50EFF
S1130980182F80E8898380EC8A8384E98B8384ED43
S11309908C83FE01E60FF11D8181810F6D830E941E
S11309A0BA031093CC016D816093CB012596E3E0EB
S11309B00C94F10E0E94BA040895A0E0B0E0E3EEB6
S11309C0F4E00C94D00ED82E8091C9019091CA0104
S11309D0009709F4FAC02D2D2A3009F443C02830B9
S11309E0C9F48091CC0181508093CC018F3F51F4A4
S11309F08091CB0181508093CB0180910301815080
S1130A008093CC018091CB018F3F09F0D8C0109224
S1130A10CB01D3C08D2D0E94BF038091CB018823CD
S1130A20B9F090E001974091030150E0849F900158
S1130A30859F300D949F300D11248091CC01E0915D
S1130A40C901F091CA01E20FF31FE80FF11DD08232
S1130A508091CC018F5F8093CC0190910301891721
S1130A6009F0B3C04091CB01242F30E08091020102
S1130A7090E001972817390709F09CC0C0E0D0E046
S1130A8041C080E06C2F0E94BA04CC248E010F5F19
S1130A901F4F33C0EC2CFF2430E0C29FC001C39F22
S1130AA0900DD29F900D1124E091C901F091CA01DB
S1130AB0EE0DFF1DE80FF91F80810E94BF03809196
S1130AC0C9019091CA012091030130E0C29FF00155
S1130AD0C39FF00DD29FF00D11248E0D9F1DE80FC2
S1130AE0F91F029FD001039FB00D129FB00D112476
S1130AF0A80FB91F8C918083C39420910301C2165F
S1130B0048F2E80160910201862F90E00297C8172D
S1130B10D9070CF4B6CF6230E0F1625080E00E9455
S1130B20BA0400E010E231C0C02FD0E0809102018D
S1130B3090E0029750E0849F9001859F300D949F30
S1130B40300D1124E091C901F091CA01EC0FFD1F91
S1130B50E20FF31F80810E94BF038091020190E0A5
S1130B6002974091030150E0849F9001859F300DCE
S1130B70949F300D1124E091C901F091CA01EC0F4A
S1130B80FD1FE20FF31F10830F5F40910301041751
S1130B9058F260910201615080E00E94BA0410E0B2
S1130BA004C080E20E94BF031F5F809103011817F5
S1130BB0C0F303C04F5F4093CB011092CC018091EE
S1130BC0CC016091CB010E94BA042D2D332727FD5F
S1130BD03095C901CDB7DEB7E8E00C94EC0E8091F6
S1130BE0C9019091CA01009711F00E94A40F2091AD
S1130BF0020130E0215030408091030190E0AC01CB
S1130C00249FC001259F900D349F900D11240E94B4
S1130C100C0F9093CA018093C901009721F1A0E0C1
S1130C20B0E208C0E091C901F091CA01E20FF31FDC
S1130C30B083AF5F2A2F30E08091020190E00197EA
S1130C406091030170E0869FA001879F500D969FDD
S1130C50500D1124241735072CF38DED94E06FE12A
S1130C6073E00E94331008950E94EF050895FC017B
S1130C7011821082138212821582148216826830C5
S1130C8068F489E290E0918380838BE290E093831F
S1130C9082838AE290E09583848323C0603180F468
S1130CA083E290E09183808385E290E09383828362
S1130CB084E290E09583848370E06850704011C0B2
S1130CC06831C0F486E290E09183808388E290E00A
S1130CD09383828387E290E09583848370E06051FC
S1130CE0704081E090E002C0880F991F6A95E2F796
S1130CF0868308956032C0F480E290E0918380831B
S1130D0082E290E09383828381E290E095838483FE
S1130D102FE130E0261B310981E090E002C0880F0A
S1130D20991F2A95E2F786830895FC01A481B58171
S1130D308681662321F09C91982B9C9308959C9125
S1130D40809589238C930895FC016F3F31F4A2812F
S1130D50B3818C91968189270CC0A281B38186814D
S1130D60662321F09C91982B9C9308959C918095E7
S1130D7089238C930895A7E0B0E0E1ECF6E00C94AD
S1130D80D30E282FF62E8E010F5F1F4FC801622F3E
S1130D900E943706C8016F2D0E94A406C80161E0B5
S1130DA00E9495062796E5E00C94EF0E83E080936D
S1130DB0B00082E08093B100E4EBF0E01082808127
S1130DC08093B30087E160E00E94BB0686E160E0A7
S1130DD00E94BB0687E060E00E94BB0686E060E0FC
S1130DE00E94BB0608958091D201882329F481E0F2
S1130DF08093D2010E94D6060895CF93DF93EC012D
S1130E000E94F306D7FF05C0D095C195DF4F91E04E
S1130E1001C090E0CF3FD10519F014F0CFEFD0E03E
S1130E20C093B300209731F48091B0008F77809302
S1130E30B0000EC08091B00080688093B000992308
S1130E4019F087E161E002C087E160E00E94BB061F
S1130E50DF91CF910895CF93DF93EC010E94F306C5
S1130E60D7FF05C0D095C195DF4F91E001C090E058
S1130E70CF3FD10519F014F0CFEFD0E0C093B40008
S1130E80209731F48091B0008F7D8093B0000EC024
S1130E908091B00080628093B000992319F086E1BC
S1130EA061E002C086E160E00E94BB06DF91CF9161
S1130EB00895CF93DF93EB010E94FD06CE010E94BB
S1130EC02B07DF91CF9108950E9459070895282F89
S1130ED030E0F901EE0FFF1F43E0220F331F4A9564
S1130EE0E1F7E20FF31FEC5FFE4F82810895282F94
S1130EF030E0F901EE0FFF1F73E0220F331F7A95E4
S1130F00E1F7E20FF31FEC5FFE4F4181282F30E041
S1130F10F901EE0FFF1F53E0220F331F5A95E1F73B
S1130F20E20FF31FEC5FFE4F81E09381491380E0F1
S1130F300895282F30E0F901EE0FFF1FB3E0220FD0
S1130F40331FBA95E1F7E20FF31FEC5FFE4F4085C4
S1130F5051854115510509F452C0282F30E0F9019B
S1130F60EE0FFF1F73E0220F331F7A95E1F7E20FB4
S1130F70F31FEC5FFE4F7281282F30E0F901EE0F72
S1130F80FF1FB3E0220F331FBA95E1F7E20FF31FFF
S1130F90EC5FFE4F9481791790F5282F30E0F9012A
S1130FA0EE0FFF1F73E0220F331F7A95E1F7E20F74
S1130FB0F31FEC5FFE4F9281490F511DFA016083CC
S1130FC0282F30E0F901EE0FFF1F53E0220F331FEB
S1130FD05A95E1F7E20FF31FEC5FFE4F92819F5F9A
S1130FE0282F30E0F901EE0FFF1FB3E0220F331F6B
S1130FF0BA95E1F7E20FF31FEC5FFE4F9283282FBF
S113100030E0F901EE0FFF1F73E0220F331F7A95D2
S1131010E1F7E20FF31FEC5FFE4F4281282F30E02F
S1131020F901EE0FFF1F53E0220F331F5A95E1F72A
S1131030E20FF31FEC5FFE4F9481491701F5282F4F
S113104030E0F901EE0FFF1F93E0220F331F9A9552
S1131050E1F7E20FF31FEC5FFE4F9581992379F0DE
S1131060282F30E0F901EE0FFF1FB3E0220F331FEA
S1131070BA95E1F7E20FF31FEC5FFE4F1282089579
S11310800F931F93182F823009F475C0882319F425
S1131090E1ECF0E002C0E9ECF0E080818F7780833E
S11310A0812F90E0FC01EE0FFF1F03E0880F991FD2
S11310B00A95E1F7E80FF91FEC5FFE4F80859185F3
S11310C00097A9F1212F30E0F901EE0FFF1FA3E0F3
S11310D0220F331FAA95E1F7E20FF31FEC5FFE4FD7
S11310E09281212F30E0F901EE0FFF1F63E0220F00
S11310F0331F6A95E1F7E20FF31FEC5FFE4F848123
S11311009817A8F4112319F4E0ECF0E002C0E8EC1D
S1131110F0E0808187FF0BC0112319F4E6ECF0E0C6
S113112002C0EEECF0E06081812F0E949907212F2C
S113113030E0F901EE0FFF1F43E0220F331F4A9501
S1131140E1F7E20FF31FEC5FFE4F8081882309F083
S113115059C0112319F4E1ECF0E002C0E9ECF0E02D
S11311608081806880834EC080911D01882319F09E
S113117010921A0147C0809120019091210100979B
S113118009F440C090911A0180911C019817D0F580
S11311908091D3018823A9F40E94940C8093D301F5
S11311A010E00BC00E94620CE02FF0E03197E11BCD
S11311B0F109EC52FE4F80831F5F0091D301101799
S11311C088F3A091D301AA23E9F080911A01E09158
S11311D02001F0912101E80FF11DA150A093D3014A
S11311E0B0E0AC52BE4F8C91808380911A018F5F26
S11311F080931A0190911A0180911C01981709F0AB
S1131200BACFB2CF1F910F910895823051F0882345
S113121019F4E1ECF0E002C0E9ECF0E090819F7792
S11312209083A82FB0E0FD01EE0FFF1F53E0AA0F3B
S1131230BB1F5A95E1F7EA0FFB1FEC5FFE4F718766
S11312406087682F70E0FB01EE0FFF1F93E0660FCD
S1131250771F9A95E1F7E60FF71FEC5FFE4F1282B6
S1131260682F70E0FB01EE0FFF1FA3E0660F771FEE
S1131270AA95E1F7E60FF71FEC5FFE4F4483482F72
S113128050E0FA01EE0FFF1F63E0440F551F6A950B
S1131290E1F7E40FF51FEC5FFE4F25838230D9F0B0
S11312A0282F30E0F901EE0FFF1F43E0220F331F18
S11312B04A95E1F7E20FF31FEC5FFE4F908199230B
S11312C051F4882319F4E1ECF0E002C0E9ECF0E019
S11312D0808180688083089521E00E940509089533
S11312E00E946C0908951F920F920FB60F920BB6CD
S11312F00F9211242F933F934F935F936F937F9398
S11313008F939F93AF93BF93EF93FF936091C60026
S113131080E00E949907FF91EF91BF91AF919F9157
S11313208F917F916F915F914F913F912F910F908A
S11313300BBE0F900FBE0F901F9018951F920F9227
S11313400FB60F920BB60F9211242F933F934F9326
S11313505F936F937F938F939F93AF93BF93EF9319
S1131360FF936091CE0081E00E949907FF91EF9175
S1131370BF91AF919F918F917F916F915F914F91A9
S11313803F912F910F900BBE0F900FBE0F901F90A7
S11313901895882319F4E1ECF0E002C0E9ECF0E0E0
S11313A08081806280830895882319F4E1ECF0E061
S11313B002C0E9ECF0E080818F7D80830895282FBE
S11313C030E0F901EE0FFF1F93E0220F331F9A95CF
S11313D0E1F7E20FF31FEC5FFE4F26813781211501
S11313E03105A1F1282F30E0F901EE0FFF1FA3E032
S11313F0220F331FAA95E1F7E20FF31FEC5FFE4FB4
S11314004181282F30E0F901EE0FFF1F63E0220F26
S1131410331F6A95E1F7E20FF31FEC5FFE4F9381F0
S11314204917A0F4282F30E0F901EE0FFF1F43E025
S1131430220F331F4A95E1F7E20FF31FEC5FFE4FD3
S11314409081992319F40E94C90908950E94D4092E
S11314500895823031F1282F30E0F901EE0FFF1F9B
S113146053E0220F331F5A95E1F7E20FF31FEC5FAD
S1131470FE4F9081992349F4882319F4E1ECF0E0BC
S113148002C0E9ECF0E098E908C0882319F4E1EC23
S1131490F0E002C0E9ECF0E098E190830E94DF09FB
S11314A078940895882319F0813041F404C080E0D1
S11314B00E94290A089581E00E94290A0895A0E063
S11314C0B0E0E5E6FAE00C94D10ED82E7A018B0157
S11314D00E94520A8D2D823001F1DD2019F4C4ECF2
S11314E0D0E002C0CCECD0E0C801B70128EF3FEF58
S11314F04FEF5FEF0E94750E6050734D8E4C9E4F00
S1131500A8019701E4E0220F331F441F551FEA95F9
S1131510D1F70E94990E39832883CDB7DEB7E7E06F
S11315200C94ED0E0E945F0A0895282F30E0F90113
S1131530EE0FFF1F73E0220F331F7A95E1F7E20FDE
S1131540F31FEC5FFE4F468157814115510509F4A5
S113155065C0282F30E0F901EE0FFF1F93E0220F42
S1131560331F9A95E1F7E20FF31FEC5FFE4F6181A1
S1131570282F30E0F901EE0FFF1FA3E0220F331FE5
S1131580AA95E1F7E20FF31FEC5FFE4F9381691711
S113159008F044C0882319F4E0ECF0E002C0E8EC61
S11315A0F0E0908195FF3AC0882319F4A6ECB0E0EE
S11315B002C0AEECB0E0282F30E0F901EE0FFF1FBF
S11315C063E0220F331F6A95E1F7E20FF31FEC5F2C
S11315D0FE4F9181490F511DFA0190819C93282F50
S11315E030E0F901EE0FFF1F93E0220F331F9A95AD
S11315F0E1F7E20FF31FEC5FFE4F91819F5F282F0D
S113160030E0F901EE0FFF1FA3E0220F331FAA956C
S1131610E1F7E20FF31FEC5FFE4F91830E94DF09B5
S113162008951F93182F823031F00E94D409812F1E
S11316300E94950A1DC080911E0190911F01009780
S1131640B9F03091190120911B01321788F406C0BA
S1131650809119018F5F80931901EDCF20911901B9
S1131660820F911DFC0180810E949B0C882381F7CD
S11316701F91089580E00E94110B81E00E94110BDC
S113168082E00E94110B80E00E94400881E00E94E9
S1131690400882E00E94400808950E943A0B089591
S11316A0282F30E0F901EE0FFF1F93E0220F331FC4
S11316B09A95E1F7E20FF31FEC5FFE4F77836683A1
S11316C0282F30E0F901EE0FFF1FA3E0220F331F94
S11316D0AA95E1F7E20FF31FEC5FFE4F1182282F6A
S11316E030E0F901EE0FFF1F63E0220F331F6A950C
S11316F0E1F7E20FF31FEC5FFE4F4383823011F0FA
S11317000E94DF0908950E94500B08951F920F92C2
S11317100FB60F920BB60F9211242F933F934F9352
S11317205F936F937F938F939F93AF93BF93EF9345
S1131730FF9380E00E94950AFF91EF91BF91AF91D2
S11317409F918F917F916F915F914F913F912F91D5
S11317500F900BBE0F900FBE0F901F9018951F9205
S11317600F920FB60F920BB60F9211242F933F9343
S11317704F935F936F937F938F939F93AF93BF9395
S1131780EF93FF9381E00E94950AFF91EF91BF913F
S1131790AF919F918F917F916F915F914F913F9105
S11317A02F910F900BBE0F900FBE0F901F901895A6
S11317B06F9364E06A95F1F76F910197C9F7089503
S11317C02F928F939F932FB68091DD019091DE012C
S11317D001968093DD019093DE0190E08091DF011A
S11317E0891F8093DF019091E5019C5F9093E5014F
S11317F08091E40180519742C0F09093E501809379
S1131800E4018091E0019091E10101968093E0016F
S11318109093E10190E08091E201891F8093E201BD
S11318208091E301891F8093E3012FBE9F918F91E3
S11318302F901895CF93DF93EC0105C088EE93E0C9
S11318400E94D80B21972097C9F7DF91CF91089573
S11318500E941A0C0895E0E7F0E080818E7F808377
S1131860A0EBB0E08C9183608C93A1EBB0E08C9101
S1131870807F8C938C9182608C93B89A80818160F4
S11318808083789408958091E601882329F481E087
S11318908093E6010E942B0C08950E94430CE0E71C
S11318A0F0E080818E7F80832091E0013091E1011E
S11318B04091E2015091E301808181608083B9010C
S11318C0CA0108958FEF64E00E94500E0895CF93EB
S11318D0DF930E944D0C9B01AC01809126019091F5
S11318E02701A0912801B0912901281739074A0737
S11318F05B07B9F081E867E00E94500EC0EFD1E0C9
S11319000E94620C899381E0CD3FD807C9F70E94F9
S11319104D0C6093260170932701809328019093C6
S11319202901DF91CF91089583E867E00E94500E6A
S11319300E94620C08951F93182F982F9095991F59
S11319409927991F85E8891B65E00E94500E812F15
S11319508F7765E00E94500E1F9108950E94670CD6
S11319608091F9019091FA0108950E94670C809189
S1131970F1019091F20108950E94670C8091F301A6
S11319809091F40108950E94670C8091F501909163
S1131990F60108950E94670C8091F7019091F80177
S11319A00895A7E0B0E0E7EDFCE00C94D60E682FB4
S11319B0CE0101960E94370689819A818032910571
S11319C031F480916B009F81892B80936B00898116
S11319D09A818332910531F480916C009F81892B27
S11319E080936C0089819A818632910531F48091CB
S11319F06D009F81892B80936D0089819A81893242
S1131A00910531F4809173009F81892B8093730039
S1131A10ED81FE8190818F818095892380838FEF72
S1131A20809368002796E2E00C94F20EA7E0B0E001
S1131A30ECE1FDE00C94D60E682FCE0101960E94D5
S1131A403706E981FA8190818F8189232796E2E024
S1131A500C94F20E1F920F920FB60F920BB60F92C8
S1131A601124FF920F931F932F933F934F935F93F0
S1131A706F937F938F939F93AF93BF93EF93FF9352
S1131A80809104020E94160DF82E809106020E9495
S1131A90160D182F809105020E94160D082F8091B3
S1131AA007020E94160D40910902609108025091AC
S1131AB00B0290910A02F41651F020910202309127
S1131AC003022F5F3F4F3093030220930202061755
S1131AD051F02091020230910302215030403093A2
S1131AE0030220930202151751F020910002309155
S1131AF001022F5F3F4F30930102209300028917A8
S1131B0051F0209100023091010221503040309375
S1131B10010220930002EF2DF0E0772767FD709516
S1131B20E617F70759F0602F70E0552747FD5095E9
S1131B306417750719F021E02093FF01412F50E04D
S1131B40292F332727FD30954217530769F0482F73
S1131B5050E020910B02332727FD3095421753079D
S1131B6019F091E09093FE01F092080200930902AB
S1131B7010930A0280930B02FF91EF91BF91AF91F2
S1131B809F918F917F916F915F914F913F912F9191
S1131B901F910F91FF900F900BBE0F900FBE0F90EF
S1131BA01F901895A3E0B0E0E8EDFDE00C94D60E8C
S1131BB08093040260930502409306022093070277
S1131BC0F8942B834A8369830E94D10C6981862F00
S1131BD00E94D10C4A81842F0E94D10C2B81822F28
S1131BE00E94D10C10920302109202021092010280
S1131BF0109200021092FF011092FE0180910402E3
S1131C000E94160D80930802809105020E94160D11
S1131C1080930902809106020E94160D80930A02A5
S1131C20809107020E94160D80930B028FEF8BBBED
S1131C3078942396E2E00C94F20E0E94D20D08955B
S1131C406F9364E06A95F1F76F910197C9F708956E
S1131C50A1E0B0E0EEE2FEE00C94D50E182F24993A
S1131C6009C02C9907C02C9A8EE190E069830E94E8
S1131C70200E698184B1806A84B92698812F83708B
S1131C8080656C7A862B8CBD81E012FF80E08DBD6F
S1131C9081E090E00E941A0C2196E3E00C94F10E8E
S1131CA00F931F93082F162F0CB406FC04C080E07A
S1131CB064E00E94280E0CB404FC03C08CB580615F
S1131CC08CBD0EBD03C00CB404FE0BC00DB407FEE6
S1131CD0FACF112321F0812F90E00E94200E8EB5BF
S1131CE001C080E01F910F910895DB018F939F93B2
S1131CF00E94BB0EBF91AF91A29F800D911DA39F27
S1131D00900DB29F900D11240895AA1BBB1B51E1A5
S1131D1007C0AA1FBB1FA617B70710F0A61BB70B57
S1131D20881F991F5A95A9F780959095BC01CD01FC
S1131D300895A1E21A2EAA1BBB1BFD010DC0AA1F08
S1131D40BB1FEE1FFF1FA217B307E407F50720F020
S1131D50A21BB30BE40BF50B661F771F881F991F9B
S1131D601A9469F760957095809590959B01AC01E4
S1131D70BD01CF0108950E94FD0EA59F900DB49F53
S1131D80900DA49F800D911D112408952F923F92D0
S1131D904F925F926F927F928F929F92AF92BF9277
S1131DA0CF92DF92EF92FF920F931F93CF93DF9323
S1131DB0CDB7DEB7CA1BDB0B0FB6F894DEBF0FBE80
S1131DC0CDBF09942A88398848885F846E847D84CD
S1131DD08C849B84AA84B984C884DF80EE80FD80CF
S1131DE00C811B81AA81B981CE0FD11D0FB6F89445
S1131DF0DEBF0FBECDBFED010895A29FB001B39F1A
S1131E00C001A39F700D811D1124911DB29F700DFF
S1131E10811D1124911D0895CF93DF938230910584
S1131E2010F482E090E0E0915302F091540220E03B
S1131E3030E0A0E0B0E0309739F14081518148179B
S1131E405907B8F04817590771F4828193811097A4
S1131E5029F013969C938E9312972CC0909354025E
S1131E608093530227C02115310531F042175307DF
S1131E7018F0A901DB0101C0EF019A01BD01DF01E6
S1131E800280F381E02DD7CF21153105F9F0281B0D
S1131E90390B2430310580F48A819B8161157105E9
S1131EA021F0FB019383828304C0909354028093B6
S1131EB05302FE01329644C0FE01E20FF31F8193E8
S1131EC0919322503109398328833AC020915102D9
S1131ED030915202232B41F420912C0130912D0199
S1131EE0309352022093510220912A0130912B0108
S1131EF02115310541F42DB73EB740912E01509183
S1131F002F01241B350BE0915102F0915202E2178C
S1131F10F307A0F42E1B3F0B2817390778F0AC0108
S1131F204E5F5F4F2417350748F04E0F5F1F5093E5
S1131F305202409351028193919302C0E0E0F0E099
S1131F40CF01DF91CF910895CF93DF93009709F4E8
S1131F5087C0FC01329713821282C0915302D09140
S1131F605402209781F420813181280F391F8091F8
S1131F705102909152028217930779F5F09352021D
S1131F80E09351026DC0DE0120E030E0AE17BF07E0
S1131F9050F412964D915C9113979D014115510592
S1131FA009F1DA01F3CFB383A28340815181840F15
S1131FB0951F8A179B0771F48D919C911197840F3B
S1131FC0951F02969183808312968D919C9113970D
S1131FD0938382832115310529F4F0935402E0930D
S1131FE053023EC0D9011396FC93EE9312974D9180
S1131FF05D91A40FB51FEA17FB0779F480819181E5
S1132000840F951F0296D90111969C938E93828119
S1132010938113969C938E931297E0E0F0E08A816B
S11320209B81009719F0FE01EC01F9CFCE010296D5
S113203028813981820F931F2091510230915202DD
S11320402817390769F4309729F410925402109232
S1132050530202C013821282D0935202C0935102DF
S1132060DF91CF9108950F931F93CF93DF93EC01EA
S11320708B01009731F46115710519F480E090E04B
S113208038C06EE070E081E090E00E94B015FC0181
S11320900097A1F380E883830115110571F013877C
S11320A0028781E883838091550290915602892B9F
S11320B021F4F0935602E09355022097C9F0D1879A
S11320C0C0878381826083838091570290915802F4
S11320D0892B71F4F0935802E093570280915902CE
S11320E090915A02892B21F4F0935A02E0935902F9
S11320F0CF01DF91CF911F910F910895CF93DF937B
S1132100CDB7DEB7FE01359661917191AF01809133
S11321105702909158020E94E110DF91CF910895E7
S11321200F931F93CF93DF93CDB7DEB72E970FB6E0
S1132130F894DEBF0FBECDBF0D891E8986E08C8367
S11321401A8309838FEF9FE79E838D83AE01475ED9
S11321505F4F6F89788DCE0101960E94E110EF8167
S1132160F885E00FF11F10822E960FB6F894DEBFAB
S11321700FBECDBFDF91CF911F910F910895CF93E3
S1132180DF93CDB7DEB72E970FB6F894DEBF0FBE40
S1132190CDBF85E08C838B899C899A838983AE012A
S11321A0495E5F4F6D897E89CE0101960E94791444
S11321B02E960FB6F894DEBF0FBECDBFDF91CF9140
S11321C008952F923F924F925F926F927F928F92D7
S11321D09F92AF92BF92CF92DF92EF92FF920F93B2
S11321E01F93CF93DF93CDB7DEB72C970FB6F89438
S11321F0DEBF0FBECDBF7C016B018A01FC011782DB
S11322001682838181FFBDC1CE0101964C01F70185
S11322109381F60193FD859193FF81916F0188234A
S113222009F4ABC1853239F493FD859193FF819113
S11322306F01853229F4B70190E00E943A16E7CF86
S1132240512C312C20E02032A0F48B3269F030F490
S1132250803259F0833269F420612CC08D3239F018
S1132260803339F4216026C02260246023C02860B2
S113227021C027FD27C030ED380F3A3078F426FF0F
S113228006C0FAE05F9E300D1124532E13C08AE07D
S1132290389E300D1124332E20620CC08E3221F46E
S11322A026FD6BC1206406C08C3611F4206802C080
S11322B0883641F4F60193FD859193FF81916F0176
S11322C08111C1CF982F9F7D9554933028F40C5FD2
S11322D01F4FFFE3F9830DC0833631F0833771F06C
S11322E0833509F05BC022C0F801808189830E5FC9
S11322F01F4F44244394512C540115C03801F2E07B
S11323006F0E711CF801A080B18026FF03C0652DFB
S113231070E002C06FEF7FEFC5012C870E94F115BA
S11323202C0183012C852F77222E17C03801F2E06F
S11323306F0E711CF801A080B18026FF03C0652DCB
S113234070E002C06FEF7FEFC5012C870E94DF159C
S11323502C012C852068222E830123FC1BC0832D95
S113236090E048165906B0F4B70180E290E00E946C
S11323703A163A94F4CFF50127FC859127FE819112
S11323805F01B70190E00E943A1631103A94F1E0EF
S11323904F1A51084114510471F7E5C0843611F005
S11323A0893639F5F80127FF07C060817181828180
S11323B093810C5F1F4F08C060817181882777FD6E
S11323C08095982F0E5F1F4F2F76B22E97FF09C06E
S11323D090958095709561957F4F8F4F9F4F2068A2
S11323E0B22E2AE030E0A4010E948516A82EA81877
S11323F044C0853729F42F7EB22E2AE030E025C070
S1132400F22FF97FBF2E8F36C1F018F4883579F09A
S1132410B4C0803719F0883721F0AFC02F2F206166
S1132420B22EB4FE0DC08B2D8460B82E09C024FFDB
S11324300AC09F2F9660B92E06C028E030E005C080
S113244020E130E002C020E132E0F801B7FE07C02D
S113245060817181828193810C5F1F4F06C060810E
S1132460718180E090E00E5F1F4FA4010E948516E9
S1132470A82EA818FB2DFF77BF2EB6FE0BC02B2D60
S11324802E7FA51450F4B4FE0AC0B2FC08C02B2D54
S11324902E7E05C07A2C2B2D03C07A2C01C0752CFE
S11324A024FF0DC0FE01EA0DF11D8081803311F47B
S11324B0297E09C022FF06C07394739404C0822F3E
S11324C0867809F0739423FD13C020FF06C05A2CAC
S11324D0731418F4530C5718732C731468F4B7015D
S11324E080E290E02C870E943A1673942C85F5CFF5
S11324F0731410F4371801C0312C24FF12C0B70133
S113250080E390E02C870E943A162C8522FF17C0A6
S113251021FF03C088E590E002C088E790E0B7019E
S11325200CC0822F867859F021FD02C080E201C0E0
S11325308BE227FD8DE2B70190E00E943A16A514C4
S113254038F4B70180E390E00E943A165A94F7CF2A
S1132550AA94F401EA0DF11D8081B70190E00E9474
S11325603A16A110F5CF332009F451CEB70180E219
S113257090E00E943A163A94F6CFF701868197814B
S113258002C08FEF9FEF2C960FB6F894DEBF0FBEFC
S1132590CDBFDF91CF911F910F91FF90EF90DF900E
S11325A0CF90BF90AF909F908F907F906F905F90EF
S11325B04F903F902F90089520FD09C0FC0123FD0A
S11325C005C022FF02C07383628351834083089550
S11325D044FD10C046FD10C0DB01FC01AA0FBB1F67
S11325E0EE1FFF1F1094D1F76A0F7B1F8E1F9F1FD2
S11325F031E003C033E001C034E0660F771F881F69
S1132600991F3150D1F7620F711D811D911D0895DD
S11326100F931F93CF93DF938C01C8010E94FC1585
S1132620EC0197FD08C00E94CC15892BB1F7B801C5
S1132630CE010E946C16CE01DF91CF911F910F91B4
S113264008958F929F92AF92CF92DF92EF92FF9272
S11326500F931F93CF93DF93EC01A62E4A01022F11
S11326600E94FC15AC0155274B32510521F04D3227
S1132670510551F40068AA9411F480E067C0CE01BA
S11326800E94FC1597FDF9CF102F1D7F302F30735A
S113269001F58033F1F4FF24FA94FA0C09F442C0F2
S11326A0CE010E94FC1597FD3DC0382F3F7D383583
S11326B051F41264AA94AA94A9F1CE010E94FC15C3
S11326C097FF07C02FC006FF02C0126001C012614D
S11326D0AF2CC12CD12C760120ED280F283080F0AE
S11326E014FF04C0BE010E946C1619C02A3040F0C9
S11326F016FFF8CF2F7D3FEE320F363098F7275074
S1132700412FC701B6010E94E8126B017C011260DF
S1132710AA9459F0CE010E94FC1597FFDDCF11FD5C
S113272004C0ABCFC12CD12C760117FF08C0F094A4
S1132730E094D094C094C11CD11CE11CF11C212F45
S1132740B701A601C4010E94DC1281E0DF91CF91A0
S11327501F910F91FF90EF90DF90CF90AF909F90DB
S11327608F9008957F928F929F92AF92BF92CF9253
S1132770DF92EF92FF920F931F93CF93DF93CDB726
S1132780DEB7A1970FB6F894DEBF0FBECDBF5C01D4
S11327907A018E010F5F1F4F680180E2D8011D92FC
S11327A08A95E9F7F501738040E050E0812CB0E0B0
S11327B0912C81E090E0F90173FCA59173FEA19145
S11327C08F017A2F9F01A11103C080E090E07DC0AA
S11327D0AE3519F44115510559F1E92DF0E0E4172E
S11327E0F5073CF4AD3569F1AD3219F4BB2319F1A9
S11327F003C0B11101C08A2EE72FE695E695E69550
S113280086010E0F111DF801A72FA7708C0102C0BD
S1132810000F111FAA95E2F7D801B081BA2BB0833B
S1132820781559F0781510F47F5FE6CF7150E4CF36
S11328309924939403C0B1E001C0B0E04F5F5F4FAF
S1132840BACFBB2319F08E8180628E83911003C0AE
S11328509924939415C0F601CE0181962081209588
S11328602193E817F907D1F7F3CFE114F10429F024
S1132870D7018C93F70131967F01615001F1912CBE
S1132880C50169A30E94FC1569A197FD16C0282FF4
S1132890269526952695F601E20FF11D208130E05C
S11328A0AC014770552702C0359527954A95E2F744
S11328B020FDDBCFB5010E946C16911086CFE11488
S11328C0F10411F0D7011C92C801A1960FB6F89437
S11328D0DEBF0FBECDBFDF91CF911F910F91FF904F
S11328E0EF90DF90CF90BF90AF909F908F907F90AC
S11328F008954F925F927F928F929F92AF92BF9270
S1132900CF92DF92EF92FF920F931F93CF93DF93B7
S11329101F92CDB7DEB78C012B017A01FC0117821F
S11329201682A12CF801D380F201D3FC8591D3FE49
S11329308191382F2F01882309F4FCC090E039835A
S11329400E94CC153981892B21F0C8010E940813FB
S1132950E9CF353241F4F201D3FC3591D3FE319104
S11329602F01353269F4C80139830E94FC1539817D
S113297097FDDEC03817B1F2B8010E946C16DAC0B8
S11329803A3241F4D3FC3591D3FE31912F01BB246B
S1132990B39401C0B12C712C20ED230F2A3090F494
S11329A0FB2DF260BF2E672D70E080E090E040E2E6
S11329B00E94E812762EF201D3FC3591D3FE3191B8
S11329C02F01EACFB1FE03C0711003C0B3C0772456
S11329D07A94383619F03C3661F014C0F201D3FC15
S11329E03591D3FE31912F01383661F4FB2DF86017
S11329F0BF2E8B2D8460B82EF201D3FC3591D3FE0B
S1132A0031912F01332309F495C0632F70E08CE8D2
S1132A1090E039830E94D4153981892B09F48AC046
S1132A20B0FC07C0F701C080D180C70102967C01C9
S1132A3002C0C12CD12C3E3651F4F8014681578195
S1132A4060E070E02B2DC6010E94DC126BCF3336A0
S1132A50A1F4B1FC02C077247394C8010E94FC1550
S1132A6097FD66C0C114D10429F0F6018083C60124
S1132A7001966C017A9489F757C03B3559F4920159
S1132A80A601672DC8010E94B2132C01009709F01A
S1132A904BC045C0C80139830E940813398197FD92
S1132AA047C03F3669F128F4343631F1393679F1CB
S1132AB02BC0333769F03537F9F026C0C114D1047F
S1132AC029F0F6018082C60101966C017A9471F0B6
S1132AD0C8010E94FC154C0197FD08C00E94CC154A
S1132AE0892B61F3B801C4010E946C16C114D1048E
S1132AF0D9F0F601108218C0FB2DF062BF2E07C07A
S1132B008B2D8061B82E03C09B2D9064B92E2B2D84
S1132B10A601672DC8010E942113811105C0F80187
S1132B208381807329F406C0B0FCFCCEA394FACE52
S1132B30AA2019F08A2D90E002C08FEF9FEF0F902A
S1132B40DF91CF911F910F91FF90EF90DF90CF9085
S1132B50BF90AF909F908F907F905F904F9008951B
S1132B600F931F93CF93DF93869F8001879F100D50
S1132B70969F100D1124C8010E940C0FEC010097C0
S1132B8029F0A80160E070E00E94EA15CE01DF910F
S1132B90CF911F910F910895911115C1803219F0B1
S1132BA089508550D0F70895FC010590061621F050
S1132BB00020D9F7C00108953197CF010895FC0191
S1132BC00590615070400110D8F7809590958E0F54
S1132BD09F1F0895DC0101C06D9341505040E0F700
S1132BE00895FC016150704001900110D8F7809560
S1132BF090958E0F9F1F0895CF93DF93EC012B8147
S1132C0020FF33C026FF0AC02F7B2B838E819F8138
S1132C1001969F838E838A8190E029C022FF0FC092
S1132C20E881F9818081992787FD9095009719F4AF
S1132C3020622B831AC03196F983E8830EC0EA859B
S1132C40FB85099597FF09C02B81019611F480E15A
S1132C5001C080E2822B8B8308C02E813F812F5FCD
S1132C603F4F3F832E83992702C08FEF9FEFDF9161
S1132C70CF9108950F931F93CF93DF93182F092FAC
S1132C80EB018B8181FD03C08FEF9FEF20C082FF9A
S1132C9010C04E815F812C813D81421753077CF423
S1132CA0E881F9819F012F5F3F4F39832883108387
S1132CB006C0E885F985812F0995892B29F72E818E
S1132CC03F812F5F3F4F3F832E83812F902FDF91D2
S1132CD0CF911F910F910895FB01238120FF12C012
S1132CE026FD10C08F3F3FEF930761F082832F7D55
S1132CF02064238326813781215031093783268339
S1132D00992708958FEF9FEF0895FA01AA27283095
S1132D1051F1203181F1E8946F936E7F6E5F7F4FA4
S1132D208F4F9F4FAF4FB1E03ED0B4E03CD0670F20
S1132D30781F891F9A1FA11D680F791F8A1F911D73
S1132D40A11D6A0F711D811D911DA11D20D009F4C3
S1132D5068943F912AE0269F11243019305D319305
S1132D60DEF6CF010895462F4770405D4193B3E0EE
S1132D700FD0C9F7F6CF462F4F70405D4A3318F095
S1132D80495D31FD4052419302D0A9F7EACFB4E046
S1132D90A6959795879577956795BA95C9F70097FE
S1132DA06105710508959B01AC010A2E069457959F
S1132DB0479537952795BA95C9F7620F731F841FF6
S1132DC0951FA01D0895992788270895F894FFCF8B
S1132DD08813021000000000000000000000000042
S1132DE000000000000000000100000000000000DE
S1132DF00000FFFFFFFFFFFFFFFF00005B0220005A
S1132E000100535553422053657269616C20496E29
S1132E10697469616C697A65640D0A000D4D656EAB
S1132E20753A207B4652537D203C696E743E3A20AD
S1132E3000476F74202563004F703A256320563A8B
S1132E4025640D0A002563202564004D6F76696EA4
S1132E506720466F72776172640D0A004D6F766960
S1132E606E6720526576657273650D0A0053746F40
S1132E70707065640D0A0042616420436F6C6F7268
S1132E802E20547279207B524759417D0D0A0052FD
S1092E90583A202800005E
S9030000FC
