:100000000C9402010C9421010C9421010C94210107
:100010000C9421010C9421010C9421010C949A045C
:100020000C9421010C9421010C9421010C94B31522
:100030000C9421010C94F7040C9421010C942101DF
:100040000C9421010C9421010C9421010C942101A8
:100050000C9446130C9459150C9421010C94210115
:100060000C9421010C9421010C9421010C94210188
:100070000C9471130C9482150C9421010C942101A1
:100080000C9421010C9421010C94210106032303FB
:10009000E8022303230323032303CA0223032303C6
:1000A000A70118030F032303AC022303DC013C0266
:1000B00021032303D801230323032303230323035F
:1000C000230323032303230323032303060323031D
:1000D000F7022303230323032303D9022303230368
:1000E000A70118030F032303BB022303DC013C0217
:1000F00021032303D8016E616E00696E6600004023
:100100007A10F35A00A0724E18090010A5D4E80026
:1001100000E87648170000E40B54020000CA9A3B3E
:10012000000000E1F50500008096980000004042C4
:100130000F000000A0860100000010270000000052
:10014000E803000000006400000000000A00000056
:1001500000000100000000002C76D888DC674F0802
:1001600023DFC1DFAE59E1B1B796E5E3E453C63A08
:10017000E651997696E8E6C28426EB898C9B62ED7F
:10018000407C6FFCEFBC9C9F40F2BAA56FA5F49039
:10019000055A2AF75C936B6CF9676DC11BFCE0E4B0
:1001A0000D47FEF520E6B500D0ED902E0300943506
:1001B00077050080841E080000204E0A000000C859
:1001C0000C333333330F986E12831141EF8D2114AA
:1001D000893BE65516CFFEE6DB18D1844B381BF77A
:1001E0007C1D901DA4BBE424203284725E22810019
:1001F000C9F124ECA1E53D276364696E6F707375E6
:1002000078585B0011241FBECFEFD0E4DEBFCDBF16
:1002100013E0A0E0B1E0E0EDF6E400E00BBF02C0C7
:1002200007900D92A23BB107D9F726E1A2EBB3E00C
:1002300001C01D92A931B207E1F70E94020B0C9494
:1002400066230C94000082E00E944A11811103C0D1
:100250000E942015F8CF0895462FBC0182E00E942D
:1002600056150C94230140E855E260E070E082E00E
:100270000E94651440E26DE174E082E00E94431345
:1002800068E170E08CE391E00E942C016FE170E086
:1002900085E591E00C942C01EF92FF920F931F9350
:1002A000CF93DF93CDB7DEB7C755D1090FB6F8941A
:1002B000DEBF0FBECDBF7E0121E5E20EF11CF701CE
:1002C00011821082FC0101900020E9F73197E81BB0
:1002D000F90B8E010D5A1F4F329790F0FF92EF925B
:1002E0001F930F932CE731E03F932F939F938F93AE
:1002F0000E94821F0FB6F894DEBF0FBECDBF10C0A4
:100300001F930F9323E831E03F932F939F938F9395
:100310000E94821F0F900F900F900F900F900F90E0
:10032000F70160817181882777FD8095982F0E9461
:100330007617F801008110E0F801E254F109E53385
:10034000F10508F080C1EA5BFF4F0C94631C8091BB
:10035000F50311E0982F91279093D1038823C9F0DA
:100360001092F5038091F1039091F2039093EE03C4
:100370008093ED0366E871E0CE0101960E94C41EF1
:100380006CE170E0CE0101960E942C011093F903FC
:100390005AC11092F90363EA71E0CE0101960E94FE
:1003A000C41E6EE270E0CE0101960E942C014BC18A
:1003B00081E08093F40347C12091100421111AC0F9
:1003C00065966FAF659766967FAF669767968FAFB6
:1003D000679768969FAF68970E947C0368969FAD69
:1003E000689767968FAD679766967FAD66976596B7
:1003F0006FAD659721E02093100410920F0465966D
:100400006FAF659766967FAF669767968FAF679772
:1004100068969FAF68970E94F8032091F303659652
:100420006FAD659766967FAD669767968FAD679758
:1004300068969FAD6897222331F020E030E044EBCE
:1004400053E40E94DB1660930B0470930C048093BA
:100450000D0490930E0411E01093D2038091D10308
:10046000882309F4F0C062ED71E0CE0101960E948C
:10047000C41E63E270E05FC020910F0421111AC016
:1004800065966FAF659766967FAF669767968FAFF5
:10049000679768969FAF68970E94B90368969FAD6B
:1004A000689767968FAD679766967FAD66976596F6
:1004B0006FAD65971092100421E020930F046596AC
:1004C0006FAF659766967FAF669767968FAF6797B2
:1004D00068969FAF68970E94F8032091F303659692
:1004E0006FAD659766967FAD669767968FAD679798
:1004F00068969FAD6897222331F020E030E044EB0E
:1005000053E40E94DB1660930B0470930C048093F9
:100510000D0490930E0411E01093D2038091D10347
:10052000882309F490C066EF71E0CE0101960E9425
:10053000C41E60E270E0CE0101960E942C01109270
:10054000D1031093F5038091F1039091F2039093FE
:10055000F0038093EF0377C02DEC3CEC4CEC5DE3B3
:1005600060910616709107168091081690910916F1
:100570000E9473164BC02DEC3CEC4CEC5DE360919B
:1005800006167091071680910816909109160E9420
:1005900072163CC020E030E040E85FE360916A04FE
:1005A00070916B0480916C0490916D040E9473169D
:1005B00036C020E030E040E85FE360916A0470916B
:1005C0006B0480916C0490916D040E94721627C098
:1005D0002AE037ED43E25CE36091FC157091FD1574
:1005E0008091FE159091FF150E94731621C02AE09C
:1005F00037ED43E25CE36091FC157091FD1580914D
:10060000FE159091FF150E94721612C06093061697
:1006100070930716809308169093091614C0609380
:100620006A0470936B0480936C0490936D040BC008
:100630006093FC157093FD158093FE159093FF1544
:1006400002C00E946C0EC95ADF4F0FB6F894DEBF8D
:100650000FBECDBFDF91CF911F910F91FF90EF9013
:100660000895CF93DF93CDB7DEB7A0970FB6F89478
:10067000DEBF0FBECDBF82E00E943A1190913D04D3
:100680002091CF033091D0038917D9F0A1E0B0E0D9
:10069000AC0FBD1FA20FB31FE92FF0E0E35EFB4FCD
:1006A00080818C932F5F3F4F3093D0032093CF03F3
:1006B0009F3119F410923D04DECF9F5F90933D046B
:1006C000DACF2115310579F0E1E0F0E0EC0FFD1F04
:1006D000E20FF31F1082CE0101960E944C0110928E
:1006E000D0031092CF03A0960FB6F894DEBF0FBED2
:1006F000CDBFDF91CF910895809136019091370160
:10070000A0913801B0913901809306169093071695
:10071000A0930816B09309168091E3039091E40327
:10072000A091E503B091E60380936A0490936B0473
:10073000A0936C04B0936D048091320190913301C9
:10074000A0913401B09135018093FC159093FD1573
:10075000A093FE15B093FF158FE692E1A3E8BBE3EB
:100760008093E7039093E803A093E903B093EA032F
:10077000089580912E0190912F01A0913001B091A8
:1007800031018093061690930716A0930816B09334
:10079000091680912A0190912B01A0912C01B09112
:1007A0002D0180936A0490936B04A0936C04B09322
:1007B0006D048091260190912701A0912801B091AC
:1007C00029018093FC159093FD15A093FE15B0931D
:1007D000FF158AE999E9A9E1BFE38093E7039093C4
:1007E000E803A093E903B093EA031092F30308959A
:1007F0001092F8031092F70310920116109202164D
:1008000010920316109204161092F8151092F91512
:100810001092FA151092FB1580911004882341F074
:1008200010920A1610920B1610920C1610920D16BA
:1008300080910F04882321F0109206041092050481
:100840001092660410926704109268041092690472
:100850000895559A5D9A28EC30E01092C0041092E9
:10086000C1041092C2041092C3048091C0049091FC
:10087000C104A091C204B091C30487339641A1057D
:10088000B105A0F48091C0049091C104A091C2046C
:10089000B091C3040196A11DB11D8093C004909333
:1008A000C104A093C204B093C304DFCF2150310927
:1008B0002115310591F65D98089582E880938000B6
:1008C00085E18093810082E080936F0088EE91E063
:1008D000909389008093880080ED93E09093870047
:1008E0008093860088E0809368008FE08093730097
:1008F00008958AB1806C8AB987B1806C87B983EA20
:100900008093B00082E08093B1001092B40008950B
:1009100097FF03C09195819591098F3F910514F040
:100920008FEF05C0009719F41092B40008958093DA
:10093000B40008951F920F920FB60F9211242F93B7
:100940003F934F935F936F938F939F93AF93BF9317
:1009500031E04B9B30E021E04A9B20E040910016C3
:1009600050910516622F6527341799F080915E0427
:1009700090915F04A0916004B09161040196A11D63
:10098000B11D80935E0490935F04A0936004B093C4
:100990006104662399F080915E0490915F04A091B8
:1009A0006004B09161040197A109B10980935E04CC
:1009B00090935F04A0936004B0936104351729F00D
:1009C000241719F081E080930E16309305162093BA
:1009D0000016BF91AF919F918F916F915F914F9151
:1009E0003F912F910F900FBE0F901F9018951F925F
:1009F0000F920FB60F9211240BB60F923F924F92A7
:100A00005F926F927F928F929F92AF92BF92CF929E
:100A1000DF92EF92FF920F931F932F933F934F9389
:100A20005F936F937F938F939F93AF93BF93EF9356
:100A3000FF93CF93DF93CDB7DEB76097DEBFCDBF17
:100A40008EE094E7AAE5BAE3809307049093080444
:100A5000A0930904B0930A048091F1039091F203EA
:100A600001969093F2038093F10381E08093FA035F
:100A70008091620490916304A0916404B091650434
:100A80000196A11DB11D8093620490936304A0930D
:100A90006404B09365048BB190E289278BB94090D0
:100AA0005E0450905F0460906004709061048091D7
:100AB000FB039091FC03B201681B790B882777FD3B
:100AC0008095982F0E9476174B015C01C090FF0320
:100AD000D0900004E0900104F090020420E030E99E
:100AE0004CE055E40E94DB169B01AC01C701B60146
:100AF0000E9473166093FF037093000480930104B7
:100B000090930204C0900704D0900804E090090478
:100B1000F0900A04A7019601C501B4010E94DB16FA
:100B200020E030E94CE055E40E94DB166093DF03DF
:100B30007093E0038093E1039093E2036093C40415
:100B40007093C5048093C6049093C7048091D70323
:100B50009091D803A091D903B091DA038093D30385
:100B60009093D403A093D503B093D6038091DB0375
:100B70009091DC03A091DD03B091DE038093D70355
:100B80009093D803A093D903B093DA038092DB0348
:100B90009092DC03A092DD03B092DE034092FB034F
:100BA0005092FC036092FD037092FE03709010045B
:100BB00030900F047720D9F160910B0470910C04F0
:100BC00080910D0490910E042091FF033091000458
:100BD00040910104509102040E9472166093011624
:100BE000709302168093031690930416809001165A
:100BF00090900216A0900316B0900416E894B7F8EF
:100C000020E030E044EB53E46091E7037091E803A7
:100C10008091E9039091EA030E942A189B01AC019C
:100C2000C501B4010E94D71687FD1DC03EC0332008
:100C3000D1F060910B0470910C0480910D0490919F
:100C40000E042091C4043091C5044091C604509113
:100C5000C7040E9472166093011670930216809367
:100C600003169093041680900A1690900B16A0908D
:100C70000C16B0900D1660910116709102168091BD
:100C8000031690910416A70196010E942A189B0151
:100C9000AC01C501B4010E94731660930A167093EB
:100CA0000B1680930C1690930D168091D203811130
:100CB0001EC06091011670910216809103169091EA
:100CC00004162091F8153091F9154091FA155091BC
:100CD000FB150E947216A70196010E94DB16609315
:100CE000660470936704809368049093690410927B
:100CF000D203772009F460C0609106167091071640
:100D000080910816909109162091011630910216D3
:100D1000409103165091041680906A0490906B04E1
:100D2000A0906C04B0906D0440900A1650900B1681
:100D300060900C1670900D16E090FC15F090FD156B
:100D40000091FE151091FF15E982FA820B831C8336
:100D5000E0906604F09067040091680410916904C3
:100D6000ED82FE820F8318870E942A186B017C0196
:100D7000A3019201C501B4010E942A189B01AC0194
:100D8000C701B6010E9473166B017C012D813E8163
:100D90004F81588569817A818B819C810E942A18B4
:100DA0009B01AC01C701B6010E9473160E94431754
:100DB0007093060460930504332009F482C06091A7
:100DC0000504709106048090061690900716A09076
:100DD0000816B09009162091011630910216409124
:100DE000031650910416E0906A04F0906B04009191
:100DF0006C0410916D04E982FA820B831C8340908D
:100E00000A1650900B1660900C1670900D16E0901C
:100E1000FC15F090FD150091FE151091FF15ED8267
:100E2000FE820F831887E0906604F09067040091BB
:100E3000680410916904E986FA860B871C87882765
:100E400077FD8095982F2D873E874F87588B0E947E
:100E500076176B017C012D853E854F855889C5012C
:100E6000B4010E942A184B015C01A301920169811F
:100E70007A818B819C810E942A189B01AC01C5015B
:100E8000B4010E9473164B015C0129853A854B859C
:100E90005C856D817E818F8198850E942A189B01D7
:100EA000AC01C501B4010E9473169B01AC01C701DE
:100EB000B6010E9473160E94431770930604609354
:100EC00005048091050490910604181619060CF487
:100ED0004698809105049091060497FD469A60918A
:100EE000050470910604882777FD8095982F0E944D
:100EF000761720E030E04AE753E40E9426181816DF
:100F00001CF48AEF90E014C060910504709106040F
:100F1000882777FD8095982F0E94761720E030E093
:100F20004AE753EC0E94D71687FF06C086E09FEF82
:100F3000909306048093050480911004882341F166
:100F40008091050490910604089754F4809105045B
:100F500090910604181619061CF488E090E014C05D
:100F6000809105049091060497FF0AC080910504C2
:100F700090910604893F9F4F1CF088EF9FEF04C0BB
:100F800080910504909106049093060480930504D3
:100F900080910F04882341F080910504909106040C
:100FA00090930604809305048091050490910604B3
:100FB00060E070E00E9488042091050430910604EE
:100FC00080910304909104042817390721F01092AE
:100FD000EC031092EB03809105049091060497FFB7
:100FE00003C09195819591098A3F910504F58091FF
:100FF000011690910216A0910316B0910416BC013F
:10100000CD019F772091E7033091E8034091E903F8
:101010005091EA030E94D71618164CF08091EB030A
:101020009091EC0301969093EC038093EB038091F5
:10103000EB039091EC0303974CF1809105049091A0
:10104000060497FF03C09195819591098A3F910508
:10105000ECF48091011690910216A0910316B091C4
:101060000416BC01CD019F772091E7033091E8037E
:101070004091E9035091EA030E94D716181634F004
:1010800083E090E09093F8038093F7038091050448
:101090009091060490930404809303048091F503D7
:1010A000882309F481C08091F1039091F20320918B
:1010B000EF033091F003821B930B20913A013091A2
:1010C0003B01821793070CF04BC02091050430912F
:1010D000060446E1489FF001499FF00D1124E853B2
:1010E000FB4F318320838091FF0390910004A091F6
:1010F0000104B091020482839383A483B583809119
:10110000C4049091C504A091C604B091C70486831D
:101110009783A087B1878091011690910216A091C4
:101120000316B091041682879387A487B5878091B0
:101130000A1690910B16A0910C16B0910D16868789
:101140009787A08BB18B8091660490916704A091E2
:101150006804B0916904828B938BA48BB58B0DC00E
:101160008091F1039091F2039093EE038093ED034D
:101170001092F50381E08093F9038091F703909139
:10118000F803039789F48091F60381110DC08091D3
:10119000F1039091F2039093EE038093ED0310928C
:1011A000F50381E08093F903809101169091021676
:1011B000A0910316B09104168093F8159093F91539
:1011C000A093FA15B093FB1560960FB6F894DEBFA6
:1011D0000FBECDBFDF91CF91FF91EF91BF91AF9146
:1011E0009F918F917F916F915F914F913F912F913F
:1011F0001F910F91FF90EF90DF90CF90BF90AF9035
:101200009F908F907F906F905F904F903F900F9046
:101210000BBE0F900FBE0F901F9018958F929F924C
:10122000AF92BF92CF92DF92EF92FF920F931F93F4
:101230008091F603882309F4DAC18091110490911A
:101240001204019769F482E090E09093F803809390
:10125000F70381E08093F30384E292E00E944C0163
:101260008091011690910216A0910316B091041678
:10127000BC01CD019F772091E7033091E8034091B5
:10128000E9035091EA030E94D71687FF2DC0809191
:10129000F7039091F8038330910531F51092F8032C
:1012A0001092F703909312048093110481E090E070
:1012B000909314048093130484EF91E00E94FB1533
:1012C00080911304909114040197F1F482E090E06E
:1012D0009093F8038093F70381E08093F30388E20F
:1012E00092E00E944C0110C08AE090E00E94FB1541
:1012F000B7CF8091F7039091F80383309105E1F027
:101300008AE090E00E94FB158091011690910216F0
:10131000A0910316B0910416BC01CD019F772091D6
:10132000E7033091E8034091E9035091EA030E94FA
:10133000D71687FFE5CFDDCF1092F8031092F703A1
:10134000909314048093130481E090E0909316042A
:101350008093150484EF91E00E94FB1580911504A1
:10136000909116040197C9F482E090E09093F803FD
:101370008093F70381E08093F3038EE292E00E9472
:101380004C010BC08091F7039091F80383309105D5
:10139000E1F08AE090E00E94FB15809101169091A7
:1013A0000216A0910316B0910416BC01CD019F77DF
:1013B0002091E7033091E8034091E9035091EA035B
:1013C0000E94D71687FFE5CFDDCF1092F803109269
:1013D000F70390931604809315041092F60310926D
:1013E000F8031092F70380911004882309F458C081
:1013F000E0910504F09106048090FF0390900004B2
:10140000A0900104B0900204C0900B04D0900C0492
:10141000E0900D04F0900E040091FC151091FD1564
:101420002091FE153091FF1540916A0450916B0494
:1014300060916C0470916D0480910616909107166E
:10144000A0910816B0910916FF93EF93BF92AF9247
:101450009F928F92FF92EF92DF92CF923F932F93C2
:101460001F930F937F936F935F934F93BF93AF93AC
:101470009F938F9384E392E09F938F9380E794E010
:101480009F938F930E94531F90936F0480936E04D9
:101490008DB79EB74A960FB6F8949EBF0FBE8DBF0C
:1014A00080910F04882309F458C0E0910504F0915D
:1014B00006048090C4049090C504A090C604B09027
:1014C000C704C0900B04D0900C04E0900D04F09081
:1014D0000E040091FC151091FD152091FE15309120
:1014E000FF1540916A0450916B0460916C047091F7
:1014F0006D048091061690910716A0910816B09180
:101500000916FF93EF93BF92AF929F928F92FF9233
:10151000EF92DF92CF923F932F931F930F937F937E
:101520006F935F934F93BF93AF939F938F9384E396
:1015300092E09F938F9380E794E09F938F930E9414
:10154000531F90936F0480936E048DB79EB74A9695
:101550000FB6F8949EBF0FBE8DBF60916E04709160
:101560006F0480E794E00E942C018091F703909132
:10157000F8039F938F9380911C048F9380911B0499
:101580008F9380911A048F93809119048F93809187
:1015900018048F93809117048F93809116048F9372
:1015A000809115048F93809114048F93809113047C
:1015B0008F93809112048F93809111048F9389E50A
:1015C00092E09F938F9380E794E09F938F930E9484
:1015D000531F90936F0480936E041092F3038DB7A2
:1015E0009EB742960FB6F8949EBF0FBE8DBF1F9157
:1015F0000F91FF90EF90DF90CF90BF90AF909F90B2
:101600008F900895CF93DF93CDB7DEB7C855D1093A
:101610000FB6F894DEBF0FBECDBF84E690E00E9407
:10162000FB150E9429040E945D040E9479040E9417
:1016300037110E9433010E94A30F78948E010F5F2F
:101640001F4F0E940E098091FA03882309F44BC0B2
:1016500060E088E00E94DD0F86E892E00E94BA0F09
:1016600060E088E00E94DD0F8091050490910604FF
:101670009F938F93AFE8B2E0BF93AF931F930F9305
:101680000E94531FC8010E94BA0F61E080E00E94CF
:10169000DD0F4091C4045091C5046091C60470915F
:1016A000C7048091FF0390910004A0910104B091C0
:1016B00002047F936F935F934F93BF93AF939F9376
:1016C0008F93A5E9B2E0BF93AF931F930F930E944E
:1016D000531FC8010E94BA0F1092FA030FB6F89474
:1016E000DEBF0FBECDBF8091F403882309F426C16D
:1016F00080911004882369F020910504309106043C
:101700004090FF0350900004609001047090020428
:1017100011C080910F0420910504309106048823A4
:1017200009F447C04090C4045090C5046090C604BA
:101730007090C70480900B0490900C04A0900D044E
:10174000B0900E04C090FC15D090FD15E090FE15F1
:10175000F090FF1540916A0450916B0460916C0405
:1017600070916D048091061690910716A09108164D
:10177000B09109163F932F937F926F925F924F9291
:10178000BF92AF929F928F92FF92EF92DF92CF9291
:101790007F936F935F934F93BF93AF939F938F9379
:1017A000A4E3B2E0BF93AF931F930F930E94531F24
:1017B0003AC080900B0490900C04A0900D04B0905F
:1017C0000E04C090FC15D090FD15E090FE15F09031
:1017D000FF1540916A0450916B0460916C04709104
:1017E0006D048091061690910716A0910816B0918D
:1017F00009163F932F93BF92AF929F928F92FF92C1
:10180000EF92DF92CF927F936F935F934F93BF934B
:10181000AF939F938F93A8EAB2E0BF93AF931F93C8
:101820000F930E94531F90936F0480936E040FB622
:10183000F894DEBF0FBECDBF60916E0470916F044F
:10184000C8010E942C018091F7039091F803209128
:10185000EC032F932091EB032F939F938F93809111
:101860001C048F9380911B048F9380911A048F9393
:10187000809119048F93809118048F93809117049D
:101880008F93809116048F93809115048F9380918C
:1018900014048F93809113048F93809112048F937B
:1018A000809111048F93ADECB2E0BF93AF931F937F
:1018B0000F930E94531F90936F0480936E04BC019A
:1018C000C8010E942C01C0906604D0906704E0908B
:1018D0006804F090690440910A1650910B166091CB
:1018E0000C1670910D168091011690910216A09120
:1018F0000316B0910416FF92EF92DF92CF927F937E
:101900006F935F934F93BF93AF939F938F93A0E099
:10191000B3E0BF93AF931F930F930E94531F909315
:101920006F0480936E040FB6F894DEBF0FBECDBF78
:10193000BC01C8010E942C011092F4038091F903AC
:10194000882309F4C4C11092F9036DE073E0C80163
:101950000E94C41E82E290E090936F0480936E0414
:1019600062E270E0C8010E942C01209105043091D0
:1019700006048091C4049091C504A091C604B0915E
:10198000C70465968CAF9DAFAEAFBFAF6597409073
:10199000FF03509000046090010470900204809056
:1019A000FC159090FD15A090FE15B090FF15C0900D
:1019B0006A04D0906B04E0906C04F0906D04409148
:1019C00006165091071660910816709109168091BD
:1019D0000B0490910C04A0910D04B0910E043F9360
:1019E0002F936596EFAD6597EF936496FFAD64977F
:1019F000FF9363962FAD63972F9362963FAD6297E7
:101A00003F937F926F925F924F92BF92AF929F925D
:101A10008F92FF92EF92DF92CF927F936F935F93BB
:101A20004F93BF93AF939F938F93A0E3B3E0BF9384
:101A3000AF931F930F930E94531F90936F04809353
:101A40006E04BC01C8010E942C018090ED039090AF
:101A5000EE038091EF039091F003881A990A6DE4E8
:101A600073E0C8010E94C41E29E430E030936F0483
:101A700020936E0469E470E0C8010E942C0160911B
:101A800006167091071680910816909109160FB6E8
:101A9000F894DEBF0FBECDBF20E030E0A9010E9468
:101AA000D716882349F08091061690910716A091C9
:101AB0000816B091091604C080E090E0A0E8BFE3EA
:101AC00065968CAF9DAFAEAFBFAF659760916A046E
:101AD00070916B0480916C0490916D0420E030E073
:101AE000A9010E94D716882349F0C0906A04D090BB
:101AF0006B04E0906C04F0906D0406C0C12CD12CF6
:101B000020E8E22E2FE3F22E6091FC157091FD1576
:101B10008091FE159091FF1520E030E0A9010E9410
:101B2000D716882349F04090FC155090FD15609021
:101B3000FE157090FF1506C0412C512C90E8692EBF
:101B40009FE3792E88ECA82E84E0B82E212C312C2E
:101B5000281439040CF0BBC0D5011A96BC916696C6
:101B6000BFAF6697F501F3856796FFAF6797D5011D
:101B70001C96BC916896BFAF6897F501F58569968C
:101B8000FFAF6997D50111968C9111978F938C9126
:101B90008F9319968C9119978F9318968C9118970B
:101BA0008F9317968C9117978F9316968C91169703
:101BB0008F9315968C9115978F9314968C911497FB
:101BC0008F9313968C9113978F9312968C911297F3
:101BD0008F9352962D913D914D915C915597C301F4
:101BE000B2010E942A189F938F937F936F93F50100
:101BF0002685378540895189C701B6010E942A1878
:101C00009F938F937F936F9366967FAD669767964A
:101C10006FAD679768969FAD689769968FAD699726
:101C2000272F362F492F582F65966CAD7DAD8EAD81
:101C30009FAD65970E942A189F938F937F936F9310
:101C40006996FFAD6997FF9368962FAD68972F93BC
:101C500067963FAD67973F9366968FAD66978F9374
:101C6000B101882777FD8095982F0E9476172091E3
:101C70000704309108044091090450910A040E941D
:101C80002A1820E030E040E752E40E942A189F938F
:101C90008F937F936F93A7E9B3E0BF93AF931F93A5
:101CA0000F930E94531F90936F0480936E040FB69E
:101CB000F894DEBF0FBECDBFBC01C8010E942C014D
:101CC0003FEF231A330A86E1A80EB11C41CF0E94D0
:101CD00020150E943103B5CC81E090E0909312046E
:101CE000809311041092140410921304109216049D
:101CF000109215041092F8031092F7038093F603E4
:101D00000C940E0980E090E0089581E090E06F93DC
:101D100064E06A95F1F76F910197C9F708950F9301
:101D20001F93CF93DF9317B13D982898299AC0E06D
:101D3000D0E00E94850E2A9A0E94850E06B12A984C
:101D40000E94850E2A9A0E94850E2A98249605FFE5
:101D500010C09E0140E050E08091B6039091B7031F
:101D6000A091B803B091B903281739074A075B0758
:101D700000F39E0140E050E08091B6039091B703DC
:101D8000A091B803B091B903281739074A075B0738
:101D900028F082E390E0A0E0B0E004C080E395E7A3
:101DA000A0E0B0E08093B6039093B703A093B8038C
:101DB000B093B90317B9DF91CF911F910F91089597
:101DC00028B190E08F709070880F991F880F991F2D
:101DD000237C282B28B92A9A0E94850E2A980E94D3
:101DE000850E0895A2E0B0E0E8EFFEE00C94811CBF
:101DF000182F4A8369830E946D0F0E948F0EF7B0DF
:101E000008B1299869814A81662311F0289A01C096
:101E1000289887B18C6387B9413029F0812F82954A
:101E20008F700E94E00E812F8F700E94E00EF7B835
:101E300008B92296E5E00C949D1C60E042E00E9407
:101E4000F20E089561E042E00E94F20E089560E013
:101E500041E00E94F20E08953D98459A80E395E78F
:101E6000A0E0B0E08093B6039093B703A093B803CB
:101E7000B093B903209A219A229A8EE190E00E94B1
:101E8000FB1583E00E94270F86E090E00E94FB157F
:101E900083E00E94270F82E090E00E94FB1583E020
:101EA0000E94270F82E090E00E94FB1582E00E94D2
:101EB000270F82E090E00E94FB1588E20E941D0F30
:101EC00088E00E941D0F81E00E941D0F86E00E94A5
:101ED0001D0F8CE00E941D0F08958091BA03882386
:101EE00029F481E08093BA030E942C0F089581E0C9
:101EF0000E941D0F8091B2039091B303009711F1DE
:101F0000A0E0B0E208C0E091B203F091B303E20FA9
:101F1000F31FB083AF5F2A2F30E08091000190E083
:101F200001976091010170E0869FA001879F500D8D
:101F3000969F500D1124241735072CF31092B503EA
:101F40001092B40308950E94770F0895EF92FF92C4
:101F5000CF93DF93E82EE7017E01F92EE70102C05F
:101F60000E94220F89918823D9F7DF91CF91FF90AA
:101F7000EF9008950E94A60F0895A5E0B0E0E3EC6D
:101F8000FFE00C94831C182F80E8898380EC8A83FF
:101F900084E98B8384ED8C83FE01E60FF11D818142
:101FA000810F6D830E941D0F1093B5036D816093A7
:101FB000B4032596E3E00C949F1C0E94BD0F089586
:101FC000A0E0B0E0E6EEFFE00C947E1CD82E8091FD
:101FD000B2039091B303009709F4FAC02D2D2A3073
:101FE00009F443C02830C9F48091B503815080932F
:101FF000B5038F3F51F48091B40381508093B403B3
:102000008091010181508093B5038091B4038F3F8B
:1020100009F0D8C01092B403D3C08D2D0E94220FB6
:102020008091B4038823B9F090E0019740910101B9
:1020300050E0849F9001859F300D949F300D1124B6
:102040008091B503E091B203F091B303E20FF31F67
:10205000E80FF11DD0828091B5038F5F8093B503A7
:1020600090910101891709F0B3C04091B403242F66
:1020700030E08091000190E001972817390709F0BE
:102080009CC0C0E0D0E041C080E06C2F0E94BD0F3A
:10209000CC248E010F5F1F4F33C0EC2CFF2430E0A7
:1020A000C29FC001C39F900DD29F900D1124E0915B
:1020B000B203F091B303EE0DFF1DE80FF91F80810D
:1020C0000E94220F8091B2039091B30320910101ED
:1020D00030E0C29FF001C39FF00DD29FF00D11249C
:1020E0008E0D9F1DE80FF91F029FD001039FB00DB9
:1020F000129FB00D1124A80FB91F8C918083C39437
:1021000020910101C21648F2E80160910001862F7A
:1021100090E00297C817D9070CF4B6CF6230E0F10F
:10212000625080E00E94BD0F00E010E231C0C02F7D
:10213000D0E08091000190E0029750E0849F9001F0
:10214000859F300D949F300D1124E091B203F091E2
:10215000B303EC0FFD1FE20FF31F80810E94220FDB
:102160008091000190E002974091010150E0849F2E
:102170009001859F300D949F300D1124E091B203A2
:10218000F091B303EC0FFD1FE20FF31F10830F5FFD
:1021900040910101041758F260910001615080E004
:1021A0000E94BD0F10E004C080E20E94220F1F5F5A
:1021B000809101011817C0F303C04F5F4093B4032F
:1021C0001092B5038091B5036091B4030E94BD0FD6
:1021D0002D2D332727FD3095C901CDB7DEB7E8E0B7
:1021E0000C949A1C8091B2039091B303009711F064
:1021F0000E94521D2091000130E02150304080911A
:10220000010190E0AC01249FC001259F900D349FF7
:10221000900D11240E94BA1C9093B3038093B203D3
:10222000009721F1A0E0B0E208C0E091B203F09184
:10223000B303E20FF31FB083AF5F2A2F30E080912A
:10224000000190E001976091010170E0869FA0017C
:10225000879F500D969F500D1124241735072CF39E
:1022600080EE9FE062E87EE00E94D61E08950E9404
:10227000F2100895282F30E0F901EE0FFF1F43E020
:10228000220F331F4A95E1F7E20FF31FEE5FFE4F77
:1022900082810895282F30E0F901EE0FFF1F73E0CF
:1022A000220F331F7A95E1F7E20FF31FEE5FFE4F27
:1022B0004181282F30E0F901EE0FFF1F53E0220F7C
:1022C000331F5A95E1F7E20FF31FEE5FFE4F81E0F7
:1022D0009381491380E00895282F30E0F901EE0F33
:1022E000FF1FB3E0220F331FBA95E1F7E20FF31F90
:1022F000EE5FFE4F408551854115510509F452C0EE
:10230000282F30E0F901EE0FFF1F73E0220F331F7B
:102310007A95E1F7E20FF31FEE5FFE4F7281282FEF
:1023200030E0F901EE0FFF1FB3E0220F331FBA9523
:10233000E1F7E20FF31FEE5FFE4F9481791790F5FE
:10234000282F30E0F901EE0FFF1F73E0220F331F3B
:102350007A95E1F7E20FF31FEE5FFE4F9281490F8E
:10236000511DFA016083282F30E0F901EE0FFF1FA5
:1023700053E0220F331F5A95E1F7E20FF31FEE5F90
:10238000FE4F92819F5F282F30E0F901EE0FFF1F73
:10239000B3E0220F331FBA95E1F7E20FF31FEE5FB0
:1023A000FE4F9283282F30E0F901EE0FFF1F73E0FC
:1023B000220F331F7A95E1F7E20FF31FEE5FFE4F16
:1023C0004281282F30E0F901EE0FFF1F53E0220F6A
:1023D000331F5A95E1F7E20FF31FEE5FFE4F948132
:1023E000491701F5282F30E0F901EE0FFF1F93E0A8
:1023F000220F331F9A95E1F7E20FF31FEE5FFE4FB6
:102400009581992379F0282F30E0F901EE0FFF1F15
:10241000B3E0220F331FBA95E1F7E20FF31FEE5F2F
:10242000FE4F128208950F931F93182F823009F4E4
:1024300075C0882319F4E1ECF0E002C0E9ECF0E0AB
:1024400080818F778083812F90E0FC01EE0FFF1F4A
:1024500003E0880F991F0A95E1F7E80FF91FEE5F77
:10246000FE4F808591850097A9F1212F30E0F90179
:10247000EE0FFF1FA3E0220F331FAA95E1F7E20F33
:10248000F31FEE5FFE4F9281212F30E0F901EE0F36
:10249000FF1F63E0220F331F6A95E1F7E20FF31F7E
:1024A000EE5FFE4F84819817A8F4112319F4E0EC35
:1024B000F0E002C0E8ECF0E0808187FF0BC0112360
:1024C00019F4E6ECF0E002C0EEECF0E06081812F60
:1024D0000E946C11212F30E0F901EE0FFF1F43E045
:1024E000220F331F4A95E1F7E20FF31FEE5FFE4F15
:1024F0008081882309F059C0112319F4E1ECF0E040
:1025000002C0E9ECF0E08081806880834EC0809159
:102510001B01882319F01092180147C080911E01F9
:1025200090911F01009709F440C09091180180918B
:102530001A019817D0F58091BB038823A9F40E9453
:1025400003168093BB0310E00BC00E94FE15E02F22
:10255000F0E03197E11BF109E454FC4F80831F5FE9
:102560000091BB03101788F3A091BB03AA23E9F0E5
:1025700080911801E0911E01F0911F01E80FF11DFB
:10258000A150A093BB03B0E0A454BC4F8C918083B6
:10259000809118018F5F80931801909118018091AC
:1025A0001A01981709F0BACFB2CF1F910F91089571
:1025B000823051F0882319F4E1ECF0E002C0E9EC3C
:1025C000F0E090819F779083A82FB0E0FD01EE0F9F
:1025D000FF1F53E0AA0FBB1F5A95E1F7EA0FFB1F3D
:1025E000EE5FFE4F71876087682F70E0FB01EE0F92
:1025F000FF1F93E0660F771F9A95E1F7E60FF71F2D
:10260000EE5FFE4F1282682F70E0FB01EE0FFF1F9E
:10261000A3E0660F771FAA95E1F7E60FF71FEE5FBD
:10262000FE4F4483482F50E0FA01EE0FFF1F63E096
:10263000440F551F6A95E1F7E40FF51FEE5FFE4F5B
:1026400025838230D9F0282F30E0F901EE0FFF1FEB
:1026500043E0220F331F4A95E1F7E20FF31FEE5FCD
:10266000FE4F9081992351F4882319F4E1ECF0E0B6
:1026700002C0E9ECF0E0808180688083089521E069
:102680000E94D81208950E943F1308951F920F923E
:102690000FB60F920BB60F9211242F933F934F93C7
:1026A0005F936F937F938F939F93AF93BF93EF93BA
:1026B000FF936091C60080E00E946C11FF91EF9142
:1026C000BF91AF919F918F917F916F915F914F914A
:1026D0003F912F910F900BBE0F900FBE0F901F9048
:1026E00018951F920F920FB60F920BB60F921124EE
:1026F0002F933F934F935F936F937F938F939F930A
:10270000AF93BF93EF93FF936091CE0081E00E945F
:102710006C11FF91EF91BF91AF919F918F917F913C
:102720006F915F914F913F912F910F900BBE0F9042
:102730000FBE0F901F901895882319F4E1ECF0E07C
:1027400002C0E9ECF0E080818062808308958823F4
:1027500019F4E1ECF0E002C0E9ECF0E080818F7D5B
:1027600080830895282F30E0F901EE0FFF1F93E0DA
:10277000220F331F9A95E1F7E20FF31FEE5FFE4F32
:102780002681378121153105A1F1282F30E0F9018B
:10279000EE0FFF1FA3E0220F331FAA95E1F7E20F10
:1027A000F31FEE5FFE4F4181282F30E0F901EE0F5D
:1027B000FF1F63E0220F331F6A95E1F7E20FF31F5B
:1027C000EE5FFE4F93814917A0F4282F30E0F90106
:1027D000EE0FFF1F43E0220F331F4A95E1F7E20F90
:1027E000F31FEE5FFE4F9081992319F40E949C1312
:1027F00008950E94A7130895823031F1282F30E008
:10280000F901EE0FFF1F53E0220F331F5A95E1F736
:10281000E20FF31FEE5FFE4F9081992349F4882366
:1028200019F4E1ECF0E002C0E9ECF0E098E908C04E
:10283000882319F4E1ECF0E002C0E9ECF0E098E163
:1028400090830E94B21378940895882319F0813000
:1028500041F404C080E00E94FC13089581E00E94CE
:10286000FC130895A0E0B0E0E8E3F4E10C947F1CD1
:10287000D82E7A018B010E9425148D2D823001F112
:10288000DD2019F4C4ECD0E002C0CCECD0E0C801EB
:10289000B70128EF3FEF4FEF5FEF0E94311C605010
:1028A000734D8E4C9E4FA8019701E4E0220F331F19
:1028B000441F551FEA95D1F70E94411C3983288394
:1028C000CDB7DEB7E7E00C949B1C0E94321408954C
:1028D000282F30E0F901EE0FFF1F73E0220F331FA6
:1028E0007A95E1F7E20FF31FEE5FFE4F46815781C5
:1028F0004115510509F465C0282F30E0F901EE0FAC
:10290000FF1F93E0220F331F9A95E1F7E20FF31FA9
:10291000EE5FFE4F6181282F30E0F901EE0FFF1FBF
:10292000A3E0220F331FAA95E1F7E20FF31FEE5F3A
:10293000FE4F9381691708F044C0882319F4E0EC36
:10294000F0E002C0E8ECF0E0908195FF3AC0882307
:1029500019F4A6ECB0E002C0AEECB0E0282F30E0F5
:10296000F901EE0FFF1F63E0220F331F6A95E1F7B5
:10297000E20FF31FEE5FFE4F9181490F511DFA01E7
:1029800090819C93282F30E0F901EE0FFF1F93E018
:10299000220F331F9A95E1F7E20FF31FEE5FFE4F10
:1029A00091819F5F282F30E0F901EE0FFF1FA3E018
:1029B000220F331FAA95E1F7E20FF31FEE5FFE4FE0
:1029C00091830E94B21308951F93182F823031F023
:1029D0000E94A713812F0E9468141DC080911C01C2
:1029E00090911D010097B9F03091170120911901C4
:1029F000321788F406C0809117018F5F809317010A
:102A0000EDCF20911701820F911DFC0180810E9462
:102A10000A16882381F71F91089580E00E94E4142C
:102A200081E00E94E41482E00E94E41480E00E94AD
:102A3000131281E00E94131282E00E941312089583
:102A40000E940D150895282F30E0F901EE0FFF1FA9
:102A500093E0220F331F9A95E1F7E20FF31FEE5F29
:102A6000FE4F77836683282F30E0F901EE0FFF1FBA
:102A7000A3E0220F331FAA95E1F7E20FF31FEE5FE9
:102A8000FE4F1182282F30E0F901EE0FFF1F63E0A7
:102A9000220F331F6A95E1F7E20FF31FEE5FFE4F3F
:102AA0004383823011F00E94B21308950E942315CF
:102AB00008951F920F920FB60F920BB60F9211242A
:102AC0002F933F934F935F936F937F938F939F9336
:102AD000AF93BF93EF93FF9380E00E946814FF9140
:102AE000EF91BF91AF919F918F917F916F915F9186
:102AF0004F913F912F910F900BBE0F900FBE0F90F3
:102B00001F9018951F920F920FB60F920BB60F924F
:102B100011242F933F934F935F936F937F938F93E2
:102B20009F93AF93BF93EF93FF9381E00E9468144C
:102B3000FF91EF91BF91AF919F918F917F916F9195
:102B40005F914F913F912F910F900BBE0F900FBE51
:102B50000F901F9018956F9364E06A95F1F76F914D
:102B60000197C9F708952F928F939F932FB6809165
:102B7000C5039091C60301968093C5039093C60345
:102B800090E08091C703891F8093C7039091CD0384
:102B90009C5F9093CD038091CC0380519742C0F00D
:102BA0009093CD038093CC038091C8039091C90387
:102BB00001968093C8039093C90390E08091CA0363
:102BC000891F8093CA038091CB03891F8093CB0315
:102BD0002FBE9F918F912F901895CF93DF93EC018B
:102BE00005C088EE93E00E94AB1521972097C9F7A6
:102BF000DF91CF9108950E94ED1508958FEF64E065
:102C00000E944D16089583E867E00E944D160E94C9
:102C1000FE1508951F93182F982F9095991F9927A7
:102C2000991F85E8891B65E00E944D16812F8F77DB
:102C300065E00E944D161F9108956F9364E06A95B8
:102C4000F1F76F910197C9F70895A1E0B0E0EBE2C9
:102C5000F6E10C94831C182F249909C02C9907C005
:102C60002C9A8EE190E069830E941D16698184B1DF
:102C7000806A84B92698812F837080656C7A862B50
:102C80008CBD81E012FF80E08DBD81E090E00E946C
:102C9000ED152196E3E00C949F1C0F931F93082FD2
:102CA000162F0CB406FC04C080E064E00E942516D8
:102CB0000CB404FC03C08CB580618CBD0EBD03C098
:102CC0000CB404FE0BC00DB407FEFACF112321F0A3
:102CD000812F90E00E941D168EB501C080E01F91EB
:102CE0000F9108955058BB27AA270ED075C166D101
:102CF00030F06BD120F031F49F3F11F41EF45BC132
:102D00000EF4E095E7FB51C1E92F77D180F3BA17B4
:102D1000620773078407950718F071F49EF58FC159
:102D20000EF4E0950B2EBA2FA02D0B01B9019001E6
:102D30000C01CA01A0011124FF27591B99F0593F2A
:102D400050F4503E68F11A16F040A22F232F342F72
:102D50004427585FF3CF469537952795A795F040C0
:102D60005395C9F77EF41F16BA0B620B730B840BD5
:102D7000BAF09150A1F0FF0FBB1F661F771F881F8D
:102D8000C2F70EC0BA0F621F731F841F48F48795E5
:102D900077956795B795F7959E3F08F0B3CF9395D4
:102DA000880F08F09927EE0F979587950895D9D049
:102DB00008F481E008950CD00FC107D140F0FED097
:102DC00030F021F45F3F19F0F0C0511139C1F3C068
:102DD00014D198F39923C9F35523B1F3951B550BDF
:102DE000BB27AA2762177307840738F09F5F5F4FDE
:102DF000220F331F441FAA1FA9F333D00E2E3AF01F
:102E0000E0E830D091505040E695001CCAF729D038
:102E1000FE2F27D0660F771F881FBB1F2617370787
:102E20004807AB07B0E809F0BB0B802DBF01FF27B7
:102E300093585F4F2AF09E3F510568F0B6C000C11D
:102E40005F3FECF3983EDCF3869577956795B795F1
:102E5000F7959F5FC9F7880F911D9695879597F90C
:102E60000895E1E0660F771F881FBB1F6217730785
:102E70008407BA0720F0621B730B840BBA0BEE1F9A
:102E800088F7E095089504D06894B111D9C00895E9
:102E9000BCD088F09F5790F0B92F9927B751A0F078
:102EA000D1F0660F771F881F991F1AF0BA95C9F7DE
:102EB00012C0B13081F0C3D0B1E00895C0C0672F17
:102EC000782F8827B85F39F0B93FCCF3869577958E
:102ED0006795B395D9F73EF4909580957095619577
:102EE0007F4F8F4F9F4F0895E89409C097FB3EF4A2
:102EF00090958095709561957F4F8F4F9F4F992347
:102F0000A9F0F92F96E9BB279395F69587957795C4
:102F10006795B795F111F8CFFAF4BB0F11F460FF84
:102F20001BC06F5F7F4F8F4F9F4F16C0882311F0DC
:102F300096E911C0772321F09EE8872F762F05C0F0
:102F4000662371F096E8862F70E060E02AF09A958B
:102F5000660F771F881FDAF7880F9695879597F980
:102F60000895990F0008550FAA0BE0E8FEEF16161A
:102F70001706E807F907C0F012161306E407F5076D
:102F800098F0621B730B840B950B39F40A2661F0E1
:102F9000232B242B252B21F408950A2609F4A14084
:102FA000A6958FEF811D811D089597F99F6780E891
:102FB00070E060E008959FEF80EC089500240A948B
:102FC0001616170618060906089500240A94121604
:102FD0001306140605060895092E0394000C11F437
:102FE000882352F0BB0F40F4BF2B11F460FF04C0E4
:102FF0006F5F7F4F8F4F9F4F089557FD9058440F3D
:10300000551F59F05F3F71F04795880F97FB991F47
:1030100061F09F3F79F08795089512161306140604
:10302000551FF2CF4695F1DF08C016161706180691
:10303000991FF1CF86957105610508940895E8946C
:10304000BB2766277727CB0197F908958ADF08F415
:103050008FEF08950BD0C0CFB1DF28F0B6DF18F0A6
:10306000952309F0A2CFA7CF1124EACFC6DFA0F3A2
:10307000959FD1F3950F50E0551F629FF001729F0D
:10308000BB27F00DB11D639FAA27F00DB11DAA1F2C
:10309000649F6627B00DA11D661F829F2227B00D79
:1030A000A11D621F739FB00DA11D621F839FA00D04
:1030B000611D221F749F3327A00D611D231F849F54
:1030C000600D211D822F762F6A2F11249F575040AB
:1030D0008AF0E1F088234AF0EE0FFF1FBB1F661F46
:1030E000771F881F91505040A9F79E3F510570F0FF
:1030F0005CCFA6CF5F3FECF3983EDCF386957795E7
:103100006795B795F795E7959F5FC1F7FE2B880FF9
:10311000911D9695879597F908952F923F924F921A
:103120005F926F927F928F929F92AF92BF92CF9257
:10313000DF92EF92FF920F931F93CF93DF93CDB760
:10314000DEB763970FB6F894DEBF0FBECDBF7C012C
:103150001B016A01FC0117821682838181FF66C30D
:10316000BE016F5F7F4F4B01F7019381F10193FD2A
:10317000859193FF81911F01882309F453C3853200
:1031800039F493FD859193FF81911F01853239F4C4
:10319000B70190E00E94211F56016501E5CF10E0C4
:1031A000512C20E02032A0F48B3269F030F48032D0
:1031B00059F0833269F420612CC08D3239F08033AC
:1031C00039F4216026C02260246023C0286021C019
:1031D00027FD27C030ED380F3A3078F426FF06C0BF
:1031E000FAE01F9F300D1124132F13C06AE0569E82
:1031F000300D1124532E20620CC08E3221F426FD96
:1032000011C3206406C08C3611F4206802C08836D1
:1032100041F4F10193FD859193FF81911F0181118B
:10322000C1CF9BEB980F933018F42061805E06C0ED
:103230009BE9980F933008F0AAC12F7E26FF16E075
:103240002F73722E853621F4F22FF0647F2E08C082
:10325000863621F4622F6068762E02C0111111505B
:1032600077FE07C01C3348F444244394410E27E002
:103270000BC0183030F4212F06C027E04CE3442E59
:1032800003C027E017E0412C560174E0A70EB11CE3
:10329000F6016081718182819381042DA4010E94D5
:1032A000E11D6C01098100FF02C003FF06C071FC33
:1032B00007C072FC08C0612C08C03DE2632E05C047
:1032C0002BE2622E02C090E2692E802F8C7099F161
:1032D000662011F084E001C083E0851510F0512CC8
:1032E0000BC0581A73FC08C0B70180E290E00E943E
:1032F000211F5A94C9F7F3CF662029F0B701862D14
:1033000090E00E94211F03FD03C00AEF10E002C0FD
:1033100006EF10E0F72DF0717F2EF80184918823DD
:1033200009F476C271108052B70190E00E94211F0B
:103330000F5F1F4FF2CF77FE0FC04C0C04FF04C08D
:103340008A81813309F44A94141474F5F8E0F41571
:1033500078F588E0482E2CC076FC2AC0812F90E0BA
:103360008C159D059CF06CEFC6166FEFD60674F0B9
:10337000772D7068772E0AC0E2E0F0E0EC0FFD1FB9
:10338000E10FF11D8081803319F411501111F4CF38
:1033900077FE0EC044244394410E812F90E0C8165E
:1033A000D9062CF41C1904C04424439401C010E035
:1033B00077FE07C01C141D043CF496012F5F3F4F9D
:1033C00005C025E030E002C021E030E0662011F0C9
:1033D0002F5F3F4F112331F0412F50E04F5F5F4F80
:1033E000240F351F452D50E02417350714F4521AC9
:1033F00001C0512C872D897049F4552039F0B7014F
:1034000080E290E00E94211F5A94F7CF662029F0B5
:10341000B701862D90E00E94211F73FC09C0552042
:1034200039F0B70180E390E00E94211F5A94F7CF52
:1034300077FE5FC09C2D8D2DD7FE02C090E080E00E
:10344000692E782E40E050E0C601841991099D87CD
:103450008C87960126193709280D391D812F90E098
:10346000EE27FF27E81BF90BFF87EE87FFEF6F16AC
:103470007F0669F4B7018EE290E02B8B3A8B488B84
:10348000598B0E94211F598948893A892B89C61472
:10349000D70454F06C857D85661577052CF4F90109
:1034A000E40FF51F818101C080E371E0671A7108A4
:1034B0004F5F5F4FEE85FF856E167F066CF0B7019C
:1034C00090E02B8B3A8B488B598B0E94211F2B89C4
:1034D0003A8948895989CACF6C147D0439F49A8194
:1034E000963318F4953311F404FF81E3B70190E0AB
:1034F0004BC08A81813309F00F7EB70190E00E94B2
:10350000211F111105C074FE18C085E490E017C09A
:10351000B7018EE290E00E94211F82E0662463944E
:10352000680EF401E80FF11D8081B70190E00E9460
:10353000211F115041F3862DF1CF85E690E0B701B0
:103540000E94211FD7FC05C0C114D10439F404FF27
:1035500005C0D194C194D1088DE201C08BE2B701BE
:1035600090E00E94211F80E36AE0C616D1042CF08F
:103570008F5FFAE0CF1AD108F7CFB70190E00E9431
:10358000211FB701C601C0960E94211F41C1833689
:1035900031F0833779F0833509F058C021C05601E6
:1035A00072E0A70EB11CF6018081898301E010E072
:1035B000640114C05601F2E0AF0EB11CF601C080E8
:1035C000D18026FF03C0612F70E002C06FEF7FEF54
:1035D000C6012B8B0E94CB1E8C012B892F7715C027
:1035E0005601F2E0AF0EB11CF601C080D18026FF7B
:1035F00003C0612F70E002C06FEF7FEFC6012B8B1D
:103600000E94B91E8C012B892068722E23FD1AC0DE
:10361000852D90E008171907A8F4B70180E290E023
:103620000E94211F5A94F4CFF60177FC859177FE12
:1036300081916F01B70190E00E94211F51105A94AF
:10364000015011090115110579F7E2C0843611F016
:10365000893651F5560127FF09C0F4E0AF0EB11CC1
:10366000F60160817181828193810AC0F2E0AF0E20
:10367000B11CF60160817181882777FD8095982FB4
:10368000022F0F7697FF08C09095809570956195F1
:103690007F4F8F4F9F4F00682AE030E0A4010E94C7
:1036A000A41FC82EC8183EC0022F853721F40F7EF4
:1036B0002AE030E01DC0097F8F3691F018F488357C
:1036C00059F0B0C0803719F0883711F0ABC00061F5
:1036D00004FF09C0046007C024FF08C0066006C0DC
:1036E00028E030E005C020E130E002C020E132E017
:1036F000560107FF09C0F4E0AF0EB11CF60160816E
:1037000071818281938108C0F2E0AF0EB11CF60195
:103710006081718180E090E0A4010E94A41FC82E06
:10372000C8180F7706FF0BC0202F2E7FC11650F44C
:1037300004FF0AC002FD08C0202F2E7E05C0DC2C2D
:10374000202F03C0DC2C01C0D12E24FF0DC0FE01B0
:10375000EC0DF11D8081803311F4297E09C022FF18
:1037600006C0D394D39404C0822F867809F0D394F2
:1037700023FD13C020FF06C01C2DD51418F4150D11
:103780001D19D52CD51468F4B70180E290E02B8B7D
:103790000E94211FD3942B89F5CFD51410F45D1806
:1037A00001C0512C24FF12C0B70180E390E02B8BA5
:1037B0000E94211F2B8922FF17C021FF03C088E52B
:1037C00090E002C088E790E0B7010CC0822F8678B5
:1037D00059F021FD02C080E201C08BE227FD8DE29D
:1037E000B70190E00E94211FC11638F4B70180E3B1
:1037F00090E00E94211F1150F7CFCA94F401EC0D04
:10380000F11D8081B70190E00E94211FC110F5CF0A
:10381000552009F4C2CCB70180E290E00E94211F3C
:103820005A94F6CFF7018681978102C08FEF9FEF00
:1038300063960FB6F894DEBF0FBECDBFDF91CF9178
:103840001F910F91FF90EF90DF90CF90BF90AF90BE
:103850009F908F907F906F905F904F903F902F90B0
:103860000895DB018F939F930E94691CBF91AF91D4
:10387000A29F800D911DA39F900DB29F900D1124CA
:103880000895A1E21A2EAA1BBB1BFD010DC0AA1FA1
:10389000BB1FEE1FFF1FA217B307E407F50720F0B9
:1038A000A21BB30BE40BF50B661F771F881F991F34
:1038B0001A9469F760957095809590959B01AC017D
:1038C000BD01CF010895EE0FFF1F0590F491E02D8B
:1038D00009940E94AB1CA59F900DB49F900DA49FCE
:1038E000800D911D112408952F923F924F925F9267
:1038F0006F927F928F929F92AF92BF92CF92DF9200
:10390000EF92FF920F931F93CF93DF93CDB7DEB764
:10391000CA1BDB0B0FB6F894DEBF0FBECDBF0994F8
:103920002A88398848885F846E847D848C849B844F
:10393000AA84B984C884DF80EE80FD800C811B815D
:10394000AA81B981CE0FD11D0FB6F894DEBF0FBE8C
:10395000CDBFED010895A29FB001B39FC001A39F09
:10396000700D811D1124911DB29F700D811D1124B8
:10397000911D0895CF93DF938230910510F482E07A
:1039800090E0E0911116F091121620E030E0A0E0F6
:10399000B0E0309739F14081518148175907B8F0AC
:1039A0004817590771F482819381109729F0139673
:1039B0009C938E9312972CC090931216809311169D
:1039C00027C02115310531F04217530718F0A9011E
:1039D000DB0101C0EF019A01BD01DF010280F3812B
:1039E000E02DD7CF21153105F9F0281B390B2430F4
:1039F000310580F48A819B816115710521F0FB01FD
:103A00009383828304C09093121680931116FE0153
:103A1000329644C0FE01E20FF31F8193919322502E
:103A20003109398328833AC020910F16309110163E
:103A3000232B41F420912201309123013093101661
:103A400020930F162091200130912101211531057D
:103A500041F42DB73EB74091240150912501241B1C
:103A6000350BE0910F16F0911016E217F307A0F452
:103A70002E1B3F0B2817390778F0AC014E5F5F4FC4
:103A80002417350748F04E0F5F1F509310164093D0
:103A90000F168193919302C0E0E0F0E0CF01DF9137
:103AA000CF910895CF93DF93009709F487C0FC016D
:103AB000329713821282C0911116D091121620975C
:103AC00081F420813181280F391F80910F16909148
:103AD00010168217930779F5F0931016E0930F16DE
:103AE0006DC0DE0120E030E0AE17BF0750F4129643
:103AF0004D915C9113979D014115510509F1DA0132
:103B0000F3CFB383A28340815181840F951F8A171D
:103B10009B0771F48D919C911197840F951F0296CC
:103B20009183808312968D919C91139793838283C6
:103B30002115310529F4F0931216E09311163EC0B9
:103B4000D9011396FC93EE9312974D915D91A40FBA
:103B5000B51FEA17FB0779F480819181840F951FC7
:103B60000296D90111969C938E938281938113962C
:103B70009C938E931297E0E0F0E08A819B810097FE
:103B800019F0FE01EC01F9CFCE01029628813981AE
:103B9000820F931F20910F163091101628173907A6
:103BA00069F4309729F4109212161092111602C07F
:103BB00013821282D0931016C0930F16DF91CF910B
:103BC0000895283008F027E03327DA01990F311DD6
:103BD00087FD916000966105710539F432602E5FB2
:103BE0003D9330E32A95E1F708959F3F30F0803808
:103BF0007105610509F03C5F3C5F3D93913008F031
:103C00008068911DDF93CF931F930F93FF92EF92E4
:103C1000192F987F9695E92F96959695E90FFF278E
:103C2000E85AFE4F99273327EE24FF24A701E70126
:103C300005900894079428F4360FE71EF81E491FD4
:103C4000511D660F771F881F991F0694A1F70590D5
:103C5000079428F4E70EF81E491F561FC11D770F61
:103C6000881F991F661F0694A1F70590079428F4F2
:103C7000F80E491F561FC71FD11D880F991F661FB9
:103C8000771F0694A1F70590079420F4490F561F5B
:103C9000C71FD81F990F661F771F881F0694A9F7A3
:103CA00084911095177041F0D695C7955795479513
:103CB000F794E7941A95C1F7EEEFF0E06894159049
:103CC000159135916591959105907FE27395E11875
:103CD000F10A430B560BC90BD009C0F7E10CF11EDA
:103CE000431F561FC91FD01D7EF4703311F48A95EF
:103CF000E6CFE894015030F0080F0AF400270217CD
:103D000008F4202F2395022F7A3328F079E37D934E
:103D10002A95E9F710C07D932A9589F60694979520
:103D20006795379517951794E118F10A430B560BD1
:103D3000C90BD00998F023957E9173957A3308F0DA
:103D400070E37C932013B8F77E9170617D9330F01F
:103D5000839571E37D9370E32A95E1F71124EF9049
:103D6000FF900F911F91CF91DF91992787FD90953B
:103D70000895FC010590615070400110D8F78095BE
:103D800090958E0F9F1F0895FB01DC0101900D920D
:103D90000020E1F70895FC0161507040019001108E
:103DA000D8F7809590958E0F9F1F08950F931F93BE
:103DB000CF93DF93EC018B01009731F4611571050E
:103DC00019F480E090E038C06EE070E081E090E0AF
:103DD0000E94D622FC010097A1F380E8838301159D
:103DE000110571F01387028781E883838091131690
:103DF00090911416892B21F4F0931416E093131666
:103E00002097C9F0D187C0878381826083838091A6
:103E1000151690911616892B71F4F0931616E093EF
:103E200015168091171690911816892B21F4F0938E
:103E30001816E0931716CF01DF91CF911F910F91C4
:103E400008950F931F93CF93DF93182F092FEB0142
:103E50008B8181FD03C08FEF9FEF20C082FF10C0D8
:103E60004E815F812C813D81421753077CF4E881AC
:103E7000F9819F012F5F3F4F39832883108306C04C
:103E8000E885F985812F0995892B29F72E813F81B6
:103E90002F5F3F4F3F832E83812F902FDF91CF9154
:103EA0001F910F9108950F931F93CF93DF93CDB779
:103EB000DEB72E970FB6F894DEBF0FBECDBF0D89CB
:103EC0001E8986E08C831A8309838FEF9FE79E8388
:103ED0008D83AE01475E5F4F6F89788DCE0101966D
:103EE0000E948D18EF81F885E00FF11F10822E9649
:103EF0000FB6F894DEBF0FBECDBFDF91CF911F91FB
:103F00000F910895CF93DF93CDB7DEB72E970FB6FD
:103F1000F894DEBF0FBECDBF85E08C838B899C8972
:103F20009A838983AE01495E5F4F6D897E89CE0198
:103F300001960E949F212E960FB6F894DEBF0FBE09
:103F4000CDBFDF91CF910895FA01AA27283051F112
:103F5000203181F1E8946F936E7F6E5F7F4F8F4FBA
:103F60009F4FAF4FB1E03ED0B4E03CD0670F781F19
:103F7000891F9A1FA11D680F791F8A1F911DA11DFE
:103F80006A0F711D811D911DA11D20D009F4689437
:103F90003F912AE0269F11243019305D3193DEF6DF
:103FA000CF010895462F4770405D4193B3E00FD095
:103FB000C9F7F6CF462F4F70405D4A3318F0495D80
:103FC00031FD4052419302D0A9F7EACFB4E0A69563
:103FD0009795879577956795BA95C9F70097610585
:103FE000710508959B01AC010A2E069457954795DB
:103FF00037952795BA95C9F7620F731F841F951FD0
:10400000A01D089520FD09C0FC0123FD05C022FF6D
:1040100002C07383628351834083089544FD10C0BE
:1040200046FD10C0DB01FC01AA0FBB1FEE1FFF1FE6
:104030001094D1F76A0F7B1F8E1F9F1F31E003C0C2
:1040400033E001C034E0660F771F881F991F31509D
:10405000D1F7620F711D811D911D08950F931F935C
:10406000CF93DF938C01C8010E940C23EC0197FDD4
:1040700008C00E94F222892BB1F7B801CE010E943C
:104080004A23CE01DF91CF911F910F9108958F9216
:104090009F92AF92CF92DF92EF92FF920F931F9376
:1040A000CF93DF93EC01A62E4A01022F0E940C232E
:1040B000AC0155274B32510521F04D32510551F4D9
:1040C0000068AA9411F480E067C0CE010E940C231E
:1040D00097FDF9CF102F1D7F302F307301F58033FE
:1040E000F1F4FF24FA94FA0C09F442C0CE010E94C4
:1040F0000C2397FD3DC0382F3F7D383551F41264B5
:10410000AA94AA94A9F1CE010E940C2397FF07C09C
:104110002FC006FF02C0126001C01261AF2CC12C7B
:10412000D12C760120ED280F283080F014FF04C038
:10413000BE010E944A2319C02A3040F016FFF8CF72
:104140002F7D3FEE320F363098F72750412FC701B1
:10415000B6010E940E206B017C011260AA9459F0F6
:10416000CE010E940C2397FFDDCF11FD04C0ABCF21
:10417000C12CD12C760117FF08C0F094E094D094A4
:10418000C094C11CD11CE11CF11C212FB701A60158
:10419000C4010E94022081E0DF91CF911F910F9115
:1041A000FF90EF90DF90CF90AF909F908F90089509
:1041B0007F928F929F92AF92BF92CF92DF92EF92B7
:1041C000FF920F931F93CF93DF93CDB7DEB7A197E5
:1041D0000FB6F894DEBF0FBECDBF5C017A018E0131
:1041E0000F5F1F4F680180E2D8011D928A95E9F7A1
:1041F000F501738040E050E0812CB0E0912C81E02B
:1042000090E0F90173FCA59173FEA1918F017A2FC3
:104210009F01A11103C080E090E07DC0AE3519F48C
:104220004115510559F1E92DF0E0E417F5073CF48B
:10423000AD3569F1AD3219F4BB2319F103C0B111E9
:1042400001C08A2EE72FE695E695E69586010E0FCA
:10425000111DF801A72FA7708C0102C0000F111FBC
:10426000AA95E2F7D801B081BA2BB083781559F03E
:10427000781510F47F5FE6CF7150E4CF99249394C2
:1042800003C0B1E001C0B0E04F5F5F4FBACFBB23C6
:1042900019F08E8180628E83911003C099249394CB
:1042A00015C0F601CE018196208120952193E81753
:1042B000F907D1F7F3CFE114F10429F0D7018C937A
:1042C000F70131967F01615001F1912CC50169A37D
:1042D0000E940C2369A197FD16C0282F26952695CC
:1042E0002695F601E20FF11D208130E0AC01477008
:1042F000552702C0359527954A95E2F720FDDBCF7B
:10430000B5010E944A23911086CFE114F10411F007
:10431000D7011C92C801A1960FB6F894DEBF0FBE5C
:10432000CDBFDF91CF911F910F91FF90EF90DF9064
:10433000CF90BF90AF909F908F907F9008954F92B5
:104340005F927F928F929F92AF92BF92CF92DF92B5
:10435000EF92FF920F931F93CF93DF931F92CDB7EE
:10436000DEB78C012B017A01FC0117821682A12C89
:10437000F801D380F201D3FC8591D3FE8191382FCF
:104380002F01882309F4FCC090E039830E94F222B7
:104390003981892B21F0C8010E942E20E9CF3532C6
:1043A00041F4F201D3FC3591D3FE31912F01353226
:1043B00069F4C80139830E940C23398197FDDEC05E
:1043C0003817B1F2B8010E944A23DAC03A3241F4F8
:1043D000D3FC3591D3FE31912F01BB24B39401C09E
:1043E000B12C712C20ED230F2A3090F4FB2DF260BC
:1043F000BF2E672D70E080E090E040E20E940E202A
:10440000762EF201D3FC3591D3FE31912F01EACF04
:10441000B1FE03C0711003C0B3C077247A9438365C
:1044200019F03C3661F014C0F201D3FC3591D3FE93
:1044300031912F01383661F4FB2DF860BF2E8B2DA2
:104440008460B82EF201D3FC3591D3FE31912F0157
:10445000332309F495C0632F70E088EF91E039832E
:104460000E94FA223981892B09F48AC0B0FC07C066
:10447000F701C080D180C70102967C0102C0C12C27
:10448000D12C3E3651F4F8014681578160E070E04E
:104490002B2DC6010E9402206BCF3336A1F4B1FC54
:1044A00002C077247394C8010E940C2397FD66C054
:1044B000C114D10429F0F6018083C60101966C0174
:1044C0007A9489F757C03B3559F49201A601672DBC
:1044D000C8010E94D8202C01009709F04BC045C0AC
:1044E000C80139830E942E20398197FD47C03F368D
:1044F00069F128F4343631F1393679F12BC033378C
:1045000069F03537F9F026C0C114D10429F0F6015D
:104510008082C60101966C017A9471F0C8010E94F4
:104520000C234C0197FD08C00E94F222892B61F3F5
:10453000B801C4010E944A23C114D104D9F0F60184
:10454000108218C0FB2DF062BF2E07C08B2D80613A
:10455000B82E03C09B2D9064B92E2B2DA601672D7C
:10456000C8010E944720811105C0F8018381807332
:1045700029F406C0B0FCFCCEA394FACEAA2019F010
:104580008A2D90E002C08FEF9FEF0F90DF91CF91C7
:104590001F910F91FF90EF90DF90CF90BF90AF9061
:1045A0009F908F907F905F904F9008950F931F93EF
:1045B000CF93DF93869F8001879F100D969F100DEC
:1045C0001124C8010E94BA1CEC01009729F0A8012F
:1045D00060E070E00E940523CE01DF91CF911F9132
:1045E0000F91089591116FC0803219F08950855054
:1045F000D0F70895FC010590061621F00020D9F7A8
:10460000C00108953197CF010895DC0101C06D9379
:1046100041505040E0F70895CF93DF93EC012B8198
:1046200020FF33C026FF0AC02F7B2B838E819F8102
:1046300001969F838E838A8190E029C022FF0FC05C
:10464000E881F9818081992787FD9095009719F479
:1046500020622B831AC03196F983E8830EC0EA8565
:10466000FB85099597FF09C02B81019611F480E124
:1046700001C080E2822B8B8308C02E813F812F5F97
:104680003F4F3F832E83992702C08FEF9FEFDF912B
:10469000CF910895FB01238120FF12C026FD10C099
:1046A0008F3F3FEF930761F082832F7D2064238348
:1046B0002681378121503109378326839927089530
:1046C0008FEF9FEF0895992788270895F894FFCFDB
:1046D00002100000000000000000000000000000C8
:1046E00000000000000001000000000000000000C9
:1046F00000001916200017B7513A00002041CDCC18
:104700004C3F8FC2F53C00002042C8005553422068
:1047100053657269616C20496E697469616C697A6C
:1047200065640D0A000D4D656E753A207B4C6C5624
:104730006C50704969446454747D206F72207B52C0
:104740007253737D3C696E743E3A200025632025C8
:10475000640A00256300576527726520646F6E65E3
:10476000206C6F6767696E672076616C7565732E64
:104770000A0D005573652074686520522F72206FF2
:104780007220532F7320636F6D6D616E6420746FA0
:1047900020626567696E206C6F6767696E672E0AB5
:1047A0000D00426567696E6E696E6720746F206CDC
:1047B0006F6720706F736974696F6E2074657374AE
:1047C0002E2E2E0A0D00426567696E6E696E672097
:1047D000746F206C6F6720737065656420746573F7
:1047E000742E2E2E0A0D0052302E323500522D30EE
:1047F0002E37350052393000522D32373000522DCD
:10480000323635004B703A2566204B693A256620D2
:104810004B643A25662050723A256620506D3A2541
:104820006620543A25640D0A0043303A256420433B
:10483000313A25642043323A25642043333A2564D3
:104840002043343A25642043353A2564204D616E77
:104850003A25640D0A002020202020202020005628
:104860003D25640D00523D25332E32662052504DB9
:104870003D25332E32660D004B703A2566204B697C
:104880003A2566204B643A25662050723A25662008
:10489000506D3A4E4120543A25640D0A0043303A97
:1048A00025642043313A25642043323A256420436D
:1048B000333A25642043343A25642043353A25644D
:1048C000204D616E3A25642045713A25640D0A0039
:1048D00025662C2025662C2025660D0A00476F6171
:1048E0006C2C204B702C204B692C204B642C2052BC
:1048F0006F742C2052504D2C20566F6C740D0A0092
:1049000025662C2025662C2025662C2025662C204B
:1049100025662C2025662C2025640D0A0054696D1F
:10492000652C204572726F722C204B704572726F2D
:10493000722C204B69496E74656772616C2C204B38
:1049400064446572697661746976652C20526F746F
:104950006174696F6E732C2052504D2C20566F6C11
:10496000746167650D0A002566202566202566208E
:1049700025662025662025662025662025640D0AEB
:02498000000035
:00000001FF
